{
  "_format": "hh-sol-artifact-1",
  "contractName": "TaxRefundStorage",
  "sourceName": "contracts/TaxRefundStorage.sol",
  "abi": [
    {
      "inputs": [],
      "stateMutability": "nonpayable",
      "type": "constructor"
    },
    {
      "anonymous": false,
      "inputs": [
        {
          "indexed": true,
          "internalType": "address",
          "name": "previousOwner",
          "type": "address"
        },
        {
          "indexed": true,
          "internalType": "address",
          "name": "newOwner",
          "type": "address"
        }
      ],
      "name": "OwnershipTransferred",
      "type": "event"
    },
    {
      "inputs": [
        {
          "internalType": "address",
          "name": "",
          "type": "address"
        }
      ],
      "name": "admins",
      "outputs": [
        {
          "internalType": "bool",
          "name": "isAdmin",
          "type": "bool"
        },
        {
          "internalType": "string",
          "name": "country",
          "type": "string"
        }
      ],
      "stateMutability": "view",
      "type": "function"
    },
    {
      "inputs": [
        {
          "internalType": "address",
          "name": "buyer",
          "type": "address"
        },
        {
          "internalType": "bytes16",
          "name": "id",
          "type": "bytes16"
        }
      ],
      "name": "approveOrder",
      "outputs": [
        {
          "internalType": "bool",
          "name": "",
          "type": "bool"
        }
      ],
      "stateMutability": "nonpayable",
      "type": "function"
    },
    {
      "inputs": [
        {
          "internalType": "address",
          "name": "buyer",
          "type": "address"
        },
        {
          "internalType": "bytes16",
          "name": "id",
          "type": "bytes16"
        }
      ],
      "name": "cancelOrder",
      "outputs": [
        {
          "internalType": "bool",
          "name": "",
          "type": "bool"
        }
      ],
      "stateMutability": "nonpayable",
      "type": "function"
    },
    {
      "inputs": [
        {
          "internalType": "string",
          "name": "stringA",
          "type": "string"
        },
        {
          "internalType": "string",
          "name": "stringB",
          "type": "string"
        }
      ],
      "name": "compareString",
      "outputs": [
        {
          "internalType": "bool",
          "name": "",
          "type": "bool"
        }
      ],
      "stateMutability": "pure",
      "type": "function"
    },
    {
      "inputs": [
        {
          "internalType": "address",
          "name": "buyer",
          "type": "address"
        },
        {
          "internalType": "bytes16",
          "name": "id",
          "type": "bytes16"
        }
      ],
      "name": "confirmOrder",
      "outputs": [
        {
          "internalType": "bool",
          "name": "",
          "type": "bool"
        }
      ],
      "stateMutability": "nonpayable",
      "type": "function"
    },
    {
      "inputs": [
        {
          "internalType": "address",
          "name": "addr",
          "type": "address"
        },
        {
          "internalType": "string",
          "name": "_country",
          "type": "string"
        }
      ],
      "name": "createAdmin",
      "outputs": [],
      "stateMutability": "nonpayable",
      "type": "function"
    },
    {
      "inputs": [
        {
          "internalType": "address payable",
          "name": "buyer",
          "type": "address"
        },
        {
          "internalType": "string",
          "name": "name",
          "type": "string"
        },
        {
          "internalType": "uint256",
          "name": "price",
          "type": "uint256"
        },
        {
          "internalType": "uint256",
          "name": "amount",
          "type": "uint256"
        }
      ],
      "name": "createOrder",
      "outputs": [],
      "stateMutability": "nonpayable",
      "type": "function"
    },
    {
      "inputs": [
        {
          "internalType": "address",
          "name": "addr",
          "type": "address"
        },
        {
          "internalType": "string",
          "name": "_name",
          "type": "string"
        },
        {
          "internalType": "string",
          "name": "_country",
          "type": "string"
        }
      ],
      "name": "createShop",
      "outputs": [],
      "stateMutability": "nonpayable",
      "type": "function"
    },
    {
      "inputs": [
        {
          "internalType": "address",
          "name": "buyer",
          "type": "address"
        }
      ],
      "name": "getAllOrdersByBuyer",
      "outputs": [
        {
          "components": [
            {
              "internalType": "bytes16",
              "name": "id",
              "type": "bytes16"
            },
            {
              "internalType": "string",
              "name": "name",
              "type": "string"
            },
            {
              "internalType": "uint256",
              "name": "price",
              "type": "uint256"
            },
            {
              "internalType": "uint256",
              "name": "amount",
              "type": "uint256"
            },
            {
              "internalType": "enum State",
              "name": "state",
              "type": "uint8"
            },
            {
              "internalType": "address",
              "name": "buyer",
              "type": "address"
            },
            {
              "components": [
                {
                  "internalType": "address",
                  "name": "shopAddr",
                  "type": "address"
                },
                {
                  "internalType": "string",
                  "name": "shopName",
                  "type": "string"
                },
                {
                  "internalType": "string",
                  "name": "country",
                  "type": "string"
                },
                {
                  "internalType": "bool",
                  "name": "exists",
                  "type": "bool"
                }
              ],
              "internalType": "struct Shop",
              "name": "shop",
              "type": "tuple"
            }
          ],
          "internalType": "struct Order[]",
          "name": "",
          "type": "tuple[]"
        }
      ],
      "stateMutability": "view",
      "type": "function"
    },
    {
      "inputs": [
        {
          "internalType": "address",
          "name": "shop",
          "type": "address"
        }
      ],
      "name": "getAllOrdersByShop",
      "outputs": [
        {
          "components": [
            {
              "internalType": "bytes16",
              "name": "id",
              "type": "bytes16"
            },
            {
              "internalType": "string",
              "name": "name",
              "type": "string"
            },
            {
              "internalType": "uint256",
              "name": "price",
              "type": "uint256"
            },
            {
              "internalType": "uint256",
              "name": "amount",
              "type": "uint256"
            },
            {
              "internalType": "enum State",
              "name": "state",
              "type": "uint8"
            },
            {
              "internalType": "address",
              "name": "buyer",
              "type": "address"
            },
            {
              "components": [
                {
                  "internalType": "address",
                  "name": "shopAddr",
                  "type": "address"
                },
                {
                  "internalType": "string",
                  "name": "shopName",
                  "type": "string"
                },
                {
                  "internalType": "string",
                  "name": "country",
                  "type": "string"
                },
                {
                  "internalType": "bool",
                  "name": "exists",
                  "type": "bool"
                }
              ],
              "internalType": "struct Shop",
              "name": "shop",
              "type": "tuple"
            }
          ],
          "internalType": "struct Order[]",
          "name": "",
          "type": "tuple[]"
        }
      ],
      "stateMutability": "view",
      "type": "function"
    },
    {
      "inputs": [
        {
          "internalType": "address",
          "name": "buyer",
          "type": "address"
        },
        {
          "internalType": "string[]",
          "name": "countries",
          "type": "string[]"
        }
      ],
      "name": "getRefundAmount",
      "outputs": [
        {
          "internalType": "uint256",
          "name": "",
          "type": "uint256"
        }
      ],
      "stateMutability": "view",
      "type": "function"
    },
    {
      "inputs": [
        {
          "internalType": "address",
          "name": "addr",
          "type": "address"
        }
      ],
      "name": "isAdmin",
      "outputs": [
        {
          "internalType": "bool",
          "name": "",
          "type": "bool"
        }
      ],
      "stateMutability": "view",
      "type": "function"
    },
    {
      "inputs": [
        {
          "internalType": "address",
          "name": "addr",
          "type": "address"
        }
      ],
      "name": "isShop",
      "outputs": [
        {
          "internalType": "bool",
          "name": "",
          "type": "bool"
        }
      ],
      "stateMutability": "view",
      "type": "function"
    },
    {
      "inputs": [
        {
          "internalType": "bytes16",
          "name": "",
          "type": "bytes16"
        }
      ],
      "name": "orders",
      "outputs": [
        {
          "internalType": "bytes16",
          "name": "id",
          "type": "bytes16"
        },
        {
          "internalType": "string",
          "name": "name",
          "type": "string"
        },
        {
          "internalType": "uint256",
          "name": "price",
          "type": "uint256"
        },
        {
          "internalType": "uint256",
          "name": "amount",
          "type": "uint256"
        },
        {
          "internalType": "enum State",
          "name": "state",
          "type": "uint8"
        },
        {
          "internalType": "address",
          "name": "buyer",
          "type": "address"
        },
        {
          "components": [
            {
              "internalType": "address",
              "name": "shopAddr",
              "type": "address"
            },
            {
              "internalType": "string",
              "name": "shopName",
              "type": "string"
            },
            {
              "internalType": "string",
              "name": "country",
              "type": "string"
            },
            {
              "internalType": "bool",
              "name": "exists",
              "type": "bool"
            }
          ],
          "internalType": "struct Shop",
          "name": "shop",
          "type": "tuple"
        }
      ],
      "stateMutability": "view",
      "type": "function"
    },
    {
      "inputs": [],
      "name": "owner",
      "outputs": [
        {
          "internalType": "address",
          "name": "",
          "type": "address"
        }
      ],
      "stateMutability": "view",
      "type": "function"
    },
    {
      "inputs": [
        {
          "internalType": "string[]",
          "name": "countries",
          "type": "string[]"
        }
      ],
      "name": "refund",
      "outputs": [],
      "stateMutability": "nonpayable",
      "type": "function"
    },
    {
      "inputs": [
        {
          "internalType": "string",
          "name": "",
          "type": "string"
        }
      ],
      "name": "refundAddress",
      "outputs": [
        {
          "internalType": "address",
          "name": "",
          "type": "address"
        }
      ],
      "stateMutability": "view",
      "type": "function"
    },
    {
      "inputs": [
        {
          "internalType": "address",
          "name": "buyer",
          "type": "address"
        },
        {
          "internalType": "bytes16",
          "name": "id",
          "type": "bytes16"
        }
      ],
      "name": "rejectOrder",
      "outputs": [
        {
          "internalType": "bool",
          "name": "",
          "type": "bool"
        }
      ],
      "stateMutability": "nonpayable",
      "type": "function"
    },
    {
      "inputs": [],
      "name": "renounceOwnership",
      "outputs": [],
      "stateMutability": "nonpayable",
      "type": "function"
    },
    {
      "inputs": [
        {
          "internalType": "string",
          "name": "countryCode",
          "type": "string"
        },
        {
          "internalType": "address",
          "name": "_refundAddress",
          "type": "address"
        }
      ],
      "name": "setRefundAddress",
      "outputs": [],
      "stateMutability": "nonpayable",
      "type": "function"
    },
    {
      "inputs": [
        {
          "internalType": "address",
          "name": "",
          "type": "address"
        }
      ],
      "name": "shops",
      "outputs": [
        {
          "internalType": "address",
          "name": "shopAddr",
          "type": "address"
        },
        {
          "internalType": "string",
          "name": "shopName",
          "type": "string"
        },
        {
          "internalType": "string",
          "name": "country",
          "type": "string"
        },
        {
          "internalType": "bool",
          "name": "exists",
          "type": "bool"
        }
      ],
      "stateMutability": "view",
      "type": "function"
    },
    {
      "inputs": [
        {
          "internalType": "address",
          "name": "newOwner",
          "type": "address"
        }
      ],
      "name": "transferOwnership",
      "outputs": [],
      "stateMutability": "nonpayable",
      "type": "function"
    }
  ],
  "bytecode": "0x60806040523480156200001157600080fd5b5062000032620000266200011560201b60201c565b6200011d60201b60201c565b60405180604001604052806001151581526020016040518060400160405280600481526020017f4e4f4e45000000000000000000000000000000000000000000000000000000008152508152506006600062000093620001e160201b60201c565b73ffffffffffffffffffffffffffffffffffffffff1673ffffffffffffffffffffffffffffffffffffffff16815260200190815260200160002060008201518160000160006101000a81548160ff02191690831515021790555060208201518160010190805190602001906200010b9291906200020a565b509050506200031f565b600033905090565b60008060009054906101000a900473ffffffffffffffffffffffffffffffffffffffff169050816000806101000a81548173ffffffffffffffffffffffffffffffffffffffff021916908373ffffffffffffffffffffffffffffffffffffffff1602179055508173ffffffffffffffffffffffffffffffffffffffff168173ffffffffffffffffffffffffffffffffffffffff167f8be0079c531659141344cd1fd0a4f28419497f9722a3daafe3b4186f6b6457e060405160405180910390a35050565b60008060009054906101000a900473ffffffffffffffffffffffffffffffffffffffff16905090565b8280546200021890620002ba565b90600052602060002090601f0160209004810192826200023c576000855562000288565b82601f106200025757805160ff191683800117855562000288565b8280016001018555821562000288579182015b82811115620002875782518255916020019190600101906200026a565b5b5090506200029791906200029b565b5090565b5b80821115620002b65760008160009055506001016200029c565b5090565b60006002820490506001821680620002d357607f821691505b60208210811415620002ea57620002e9620002f0565b5b50919050565b7f4e487b7100000000000000000000000000000000000000000000000000000000600052602260045260246000fd5b6150e4806200032f6000396000f3fe608060405234801561001057600080fd5b50600436106101425760003560e01c806375b83187116100b857806397d3074f1161007c57806397d3074f146103c3578063a54c2750146103f3578063a8e9f8e21461040f578063c5c731241461043f578063e2fd546414610475578063f2fde38b146104a557610142565b806375b83187146102f95780637d29985b1461032957806388ad7cd0146103455780638da5cb5b146103755780639270a6dd1461039357610142565b80632dca1fcc1161010a5780632dca1fcc1461020f578063429b62e5146102425780634b211cc614610273578063688779251461028f5780636b17e2fb146102bf578063715018a6146102ef57610142565b80630667edbd146101475780631d0e8a4d146101775780631e501786146101a757806324d7806c146101c357806328e81227146101f3575b600080fd5b610161600480360381019061015c9190613e5a565b6104c1565b60405161016e9190614943565b60405180910390f35b610191600480360381019061018c9190613db1565b61082c565b60405161019e919061471b565b60405180910390f35b6101c160048036038101906101bc9190614068565b610885565b005b6101dd60048036038101906101d89190613db1565b61092e565b6040516101ea919061471b565b60405180910390f35b61020d60048036038101906102089190613dda565b610987565b005b61022960048036038101906102249190613db1565b6110e4565b60405161023994939291906146a6565b60405180910390f35b61025c60048036038101906102579190613db1565b611251565b60405161026a929190614736565b60405180910390f35b61028d60048036038101906102889190613eea565b61130a565b005b6102a960048036038101906102a49190613db1565b6113f3565b6040516102b691906146f9565b60405180910390f35b6102d960048036038101906102d49190614027565b611997565b6040516102e6919061468b565b60405180910390f35b6102f76119e0565b005b610313600480360381019061030e91906140bc565b611a68565b604051610320919061471b565b60405180910390f35b610343600480360381019061033e9190613fbd565b611ac1565b005b61035f600480360381019061035a9190613eae565b611f6b565b60405161036c919061471b565b60405180910390f35b61037d612214565b60405161038a919061468b565b60405180910390f35b6103ad60048036038101906103a89190613eae565b61223d565b6040516103ba919061471b565b60405180910390f35b6103dd60048036038101906103d89190613eae565b6126c0565b6040516103ea919061471b565b60405180910390f35b61040d60048036038101906104089190613f3e565b612b43565b005b61042960048036038101906104249190613eae565b612cb3565b604051610436919061471b565b60405180910390f35b61045960048036038101906104549190613ffe565b613028565b60405161046c9796959493929190614766565b60405180910390f35b61048f600480360381019061048a9190613db1565b6132cb565b60405161049c91906146f9565b60405180910390f35b6104bf60048036038101906104ba9190613db1565b61386f565b005b6000806104cd846132cb565b90506000815114156104e3576000915050610826565b6000805b845181101561081f57600085828151811061052b577f4e487b7100000000000000000000000000000000000000000000000000000000600052603260045260246000fd5b602002602001015190506000805b855181101561072857600086828151811061057d577f4e487b7100000000000000000000000000000000000000000000000000000000600052603260045260246000fd5b602002602001015160400151905060008783815181106105c6577f4e487b7100000000000000000000000000000000000000000000000000000000600052603260045260246000fd5b6020026020010151606001519050610626888481518110610610577f4e487b7100000000000000000000000000000000000000000000000000000000600052603260045260246000fd5b602002602001015160c001516040015186611a68565b80156106e6575060046005811115610667577f4e487b7100000000000000000000000000000000000000000000000000000000600052602160045260246000fd5b8884815181106106a0577f4e487b7100000000000000000000000000000000000000000000000000000000600052603260045260246000fd5b60200260200101516080015160058111156106e4577f4e487b7100000000000000000000000000000000000000000000000000000000600052602160045260246000fd5b145b1561071357610710610701828461396790919063ffffffff16565b8561397d90919063ffffffff16565b93505b5050808061072090614cb8565b915050610539565b50600060038360405161073b9190614674565b908152602001604051809103902060009054906101000a900473ffffffffffffffffffffffffffffffffffffffff1690506108078173ffffffffffffffffffffffffffffffffffffffff166304cd5294846040518263ffffffff1660e01b81526004016107a89190614943565b60206040518083038186803b1580156107c057600080fd5b505afa1580156107d4573d6000803e3d6000fd5b505050506040513d601f19601f820116820180604052508101906107f89190614128565b8661397d90919063ffffffff16565b9450505050808061081790614cb8565b9150506104e7565b5080925050505b92915050565b6000600260008373ffffffffffffffffffffffffffffffffffffffff1673ffffffffffffffffffffffffffffffffffffffff16815260200190815260200160002060030160009054906101000a900460ff169050919050565b61088e3361092e565b6108cd576040517f08c379a00000000000000000000000000000000000000000000000000000000081526004016108c4906148a3565b60405180910390fd5b806003836040516108de9190614674565b908152602001604051809103902060006101000a81548173ffffffffffffffffffffffffffffffffffffffff021916908373ffffffffffffffffffffffffffffffffffffffff1602179055505050565b6000600660008373ffffffffffffffffffffffffffffffffffffffff1673ffffffffffffffffffffffffffffffffffffffff16815260200190815260200160002060000160009054906101000a900460ff169050919050565b6109903361082c565b6109cf576040517f08c379a00000000000000000000000000000000000000000000000000000000081526004016109c6906147e3565b60405180910390fd5b60008211610a12576040517f08c379a0000000000000000000000000000000000000000000000000000000008152600401610a09906148c3565b60405180910390fd5b60008111610a55576040517f08c379a0000000000000000000000000000000000000000000000000000000008152600401610a4c90614843565b60405180910390fd5b610a5d613a5f565b33600143610a6b9190614b2a565b40604051602001610a7d929190614648565b6040516020818303038152906040528051906020012081600001906fffffffffffffffffffffffffffffffff191690816fffffffffffffffffffffffffffffffff19168152505084848080601f016020809104026020016040519081016040528093929190818152602001838380828437600081840152601f19601f8201169050808301925050505050505081602001819052508281604001818152505081816060018181525050858160a0019073ffffffffffffffffffffffffffffffffffffffff16908173ffffffffffffffffffffffffffffffffffffffff1681525050600081608001906005811115610b9c577f4e487b7100000000000000000000000000000000000000000000000000000000600052602160045260246000fd5b90816005811115610bd6577f4e487b7100000000000000000000000000000000000000000000000000000000600052602160045260246000fd5b81525050600260003373ffffffffffffffffffffffffffffffffffffffff1673ffffffffffffffffffffffffffffffffffffffff1681526020019081526020016000206040518060800160405290816000820160009054906101000a900473ffffffffffffffffffffffffffffffffffffffff1673ffffffffffffffffffffffffffffffffffffffff1673ffffffffffffffffffffffffffffffffffffffff168152602001600182018054610c8a90614c55565b80601f0160208091040260200160405190810160405280929190818152602001828054610cb690614c55565b8015610d035780601f10610cd857610100808354040283529160200191610d03565b820191906000526020600020905b815481529060010190602001808311610ce657829003601f168201915b50505050508152602001600282018054610d1c90614c55565b80601f0160208091040260200160405190810160405280929190818152602001828054610d4890614c55565b8015610d955780601f10610d6a57610100808354040283529160200191610d95565b820191906000526020600020905b815481529060010190602001808311610d7857829003601f168201915b505050505081526020016003820160009054906101000a900460ff1615151515815250508160c00181905250600460003373ffffffffffffffffffffffffffffffffffffffff1673ffffffffffffffffffffffffffffffffffffffff168152602001908152602001600020816000015190806001815401808255809150506001900390600052602060002090600291828204019190066010029091909190916101000a8154816fffffffffffffffffffffffffffffffff021916908360801c0217905550600560008773ffffffffffffffffffffffffffffffffffffffff1673ffffffffffffffffffffffffffffffffffffffff168152602001908152602001600020816000015190806001815401808255809150506001900390600052602060002090600291828204019190066010029091909190916101000a8154816fffffffffffffffffffffffffffffffff021916908360801c0217905550806001600083600001516fffffffffffffffffffffffffffffffff19166fffffffffffffffffffffffffffffffff1916815260200190815260200160002060008201518160000160006101000a8154816fffffffffffffffffffffffffffffffff021916908360801c02179055506020820151816001019080519060200190610f7b929190613b03565b50604082015181600201556060820151816003015560808201518160040160006101000a81548160ff02191690836005811115610fe1577f4e487b7100000000000000000000000000000000000000000000000000000000600052602160045260246000fd5b021790555060a08201518160040160016101000a81548173ffffffffffffffffffffffffffffffffffffffff021916908373ffffffffffffffffffffffffffffffffffffffff16021790555060c08201518160050160008201518160000160006101000a81548173ffffffffffffffffffffffffffffffffffffffff021916908373ffffffffffffffffffffffffffffffffffffffff1602179055506020820151816001019080519060200190611099929190613b03565b5060408201518160020190805190602001906110b6929190613b03565b5060608201518160030160006101000a81548160ff0219169083151502179055505050905050505050505050565b60026020528060005260406000206000915090508060000160009054906101000a900473ffffffffffffffffffffffffffffffffffffffff169080600101805461112d90614c55565b80601f016020809104026020016040519081016040528092919081815260200182805461115990614c55565b80156111a65780601f1061117b576101008083540402835291602001916111a6565b820191906000526020600020905b81548152906001019060200180831161118957829003601f168201915b5050505050908060020180546111bb90614c55565b80601f01602080910402602001604051908101604052809291908181526020018280546111e790614c55565b80156112345780601f1061120957610100808354040283529160200191611234565b820191906000526020600020905b81548152906001019060200180831161121757829003601f168201915b5050505050908060030160009054906101000a900460ff16905084565b60066020528060005260406000206000915090508060000160009054906101000a900460ff169080600101805461128790614c55565b80601f01602080910402602001604051908101604052809291908181526020018280546112b390614c55565b80156113005780601f106112d557610100808354040283529160200191611300565b820191906000526020600020905b8154815290600101906020018083116112e357829003601f168201915b5050505050905082565b6113133361092e565b611352576040517f08c379a0000000000000000000000000000000000000000000000000000000008152600401611349906148a3565b60405180910390fd5b6000604051806040016040528060011515815260200183815250905080600660008573ffffffffffffffffffffffffffffffffffffffff1673ffffffffffffffffffffffffffffffffffffffff16815260200190815260200160002060008201518160000160006101000a81548160ff02191690831515021790555060208201518160010190805190602001906113ea929190613b03565b50905050505050565b60606000600460008473ffffffffffffffffffffffffffffffffffffffff1673ffffffffffffffffffffffffffffffffffffffff1681526020019081526020016000208054806020026020016040519081016040528092919081815260200182805480156114b657602002820191906000526020600020906000905b82829054906101000a900460801b6fffffffffffffffffffffffffffffffff191681526020019060100190602082600f0104928301926001038202915080841161146f5790505b505050505090506000815167ffffffffffffffff811115611500577f4e487b7100000000000000000000000000000000000000000000000000000000600052604160045260246000fd5b60405190808252806020026020018201604052801561153957816020015b611526613a5f565b81526020019060019003908161151e5790505b50905060005b825181101561198c5760016000848381518110611585577f4e487b7100000000000000000000000000000000000000000000000000000000600052603260045260246000fd5b60200260200101516fffffffffffffffffffffffffffffffff19166fffffffffffffffffffffffffffffffff191681526020019081526020016000206040518060e00160405290816000820160009054906101000a900460801b6fffffffffffffffffffffffffffffffff19166fffffffffffffffffffffffffffffffff1916815260200160018201805461161990614c55565b80601f016020809104026020016040519081016040528092919081815260200182805461164590614c55565b80156116925780601f1061166757610100808354040283529160200191611692565b820191906000526020600020905b81548152906001019060200180831161167557829003601f168201915b5050505050815260200160028201548152602001600382015481526020016004820160009054906101000a900460ff1660058111156116fa577f4e487b7100000000000000000000000000000000000000000000000000000000600052602160045260246000fd5b6005811115611732577f4e487b7100000000000000000000000000000000000000000000000000000000600052602160045260246000fd5b81526020016004820160019054906101000a900473ffffffffffffffffffffffffffffffffffffffff1673ffffffffffffffffffffffffffffffffffffffff1673ffffffffffffffffffffffffffffffffffffffff168152602001600582016040518060800160405290816000820160009054906101000a900473ffffffffffffffffffffffffffffffffffffffff1673ffffffffffffffffffffffffffffffffffffffff1673ffffffffffffffffffffffffffffffffffffffff16815260200160018201805461180290614c55565b80601f016020809104026020016040519081016040528092919081815260200182805461182e90614c55565b801561187b5780601f106118505761010080835404028352916020019161187b565b820191906000526020600020905b81548152906001019060200180831161185e57829003601f168201915b5050505050815260200160028201805461189490614c55565b80601f01602080910402602001604051908101604052809291908181526020018280546118c090614c55565b801561190d5780601f106118e25761010080835404028352916020019161190d565b820191906000526020600020905b8154815290600101906020018083116118f057829003601f168201915b505050505081526020016003820160009054906101000a900460ff1615151515815250508152505082828151811061196e577f4e487b7100000000000000000000000000000000000000000000000000000000600052603260045260246000fd5b6020026020010181905250808061198490614cb8565b91505061153f565b508092505050919050565b6003818051602081018201805184825260208301602085012081835280955050505050506000915054906101000a900473ffffffffffffffffffffffffffffffffffffffff1681565b6119e8613993565b73ffffffffffffffffffffffffffffffffffffffff16611a06612214565b73ffffffffffffffffffffffffffffffffffffffff1614611a5c576040517f08c379a0000000000000000000000000000000000000000000000000000000008152600401611a53906148e3565b60405180910390fd5b611a66600061399b565b565b600081604051602001611a7b9190614674565b6040516020818303038152906040528051906020012083604051602001611aa29190614674565b6040516020818303038152906040528051906020012014905092915050565b6000611acc336132cb565b90506000815111611b12576040517f08c379a0000000000000000000000000000000000000000000000000000000008152600401611b0990614903565b60405180910390fd5b6000805b8351811015611f2157600080858381518110611b5b577f4e487b7100000000000000000000000000000000000000000000000000000000600052603260045260246000fd5b6020026020010151905060005b8551811015611e26576000868281518110611bac577f4e487b7100000000000000000000000000000000000000000000000000000000600052603260045260246000fd5b60200260200101516040015190506000878381518110611bf5577f4e487b7100000000000000000000000000000000000000000000000000000000600052603260045260246000fd5b6020026020010151606001519050611c55888481518110611c3f577f4e487b7100000000000000000000000000000000000000000000000000000000600052603260045260246000fd5b602002602001015160c001516040015185611a68565b8015611d15575060046005811115611c96577f4e487b7100000000000000000000000000000000000000000000000000000000600052602160045260246000fd5b888481518110611ccf577f4e487b7100000000000000000000000000000000000000000000000000000000600052603260045260246000fd5b6020026020010151608001516005811115611d13577f4e487b7100000000000000000000000000000000000000000000000000000000600052602160045260246000fd5b145b15611e1157611d3f611d30828461396790919063ffffffff16565b8661397d90919063ffffffff16565b94506005600160008a8681518110611d80577f4e487b7100000000000000000000000000000000000000000000000000000000600052603260045260246000fd5b6020026020010151600001516fffffffffffffffffffffffffffffffff19166fffffffffffffffffffffffffffffffff1916815260200190815260200160002060040160006101000a81548160ff02191690836005811115611e0b577f4e487b7100000000000000000000000000000000000000000000000000000000600052602160045260246000fd5b02179055505b50508080611e1e90614cb8565b915050611b68565b506000600382604051611e399190614674565b908152602001604051809103902060009054906101000a900473ffffffffffffffffffffffffffffffffffffffff169050611f098173ffffffffffffffffffffffffffffffffffffffff16637ad226dc85336040518363ffffffff1660e01b8152600401611ea892919061495e565b602060405180830381600087803b158015611ec257600080fd5b505af1158015611ed6573d6000803e3d6000fd5b505050506040513d601f19601f82011682018060405250810190611efa9190614128565b8661397d90919063ffffffff16565b94505050508080611f1990614cb8565b915050611b16565b506000811415611f66576040517f08c379a0000000000000000000000000000000000000000000000000000000008152600401611f5d90614863565b60405180910390fd5b505050565b6000611f763361092e565b611fb5576040517f08c379a0000000000000000000000000000000000000000000000000000000008152600401611fac906148a3565b60405180910390fd5b82828173ffffffffffffffffffffffffffffffffffffffff1660016000836fffffffffffffffffffffffffffffffff19166fffffffffffffffffffffffffffffffff1916815260200190815260200160002060040160019054906101000a900473ffffffffffffffffffffffffffffffffffffffff1673ffffffffffffffffffffffffffffffffffffffff1614612081576040517f08c379a000000000000000000000000000000000000000000000000000000000815260040161207890614883565b60405180910390fd5b600360058111156120bb577f4e487b7100000000000000000000000000000000000000000000000000000000600052602160045260246000fd5b60016000866fffffffffffffffffffffffffffffffff19166fffffffffffffffffffffffffffffffff1916815260200190815260200160002060040160009054906101000a900460ff16600581111561213d577f4e487b7100000000000000000000000000000000000000000000000000000000600052602160045260246000fd5b1461217d576040517f08c379a000000000000000000000000000000000000000000000000000000000815260040161217490614923565b60405180910390fd5b600460016000866fffffffffffffffffffffffffffffffff19166fffffffffffffffffffffffffffffffff1916815260200190815260200160002060040160006101000a81548160ff02191690836005811115612203577f4e487b7100000000000000000000000000000000000000000000000000000000600052602160045260246000fd5b021790555060019250505092915050565b60008060009054906101000a900473ffffffffffffffffffffffffffffffffffffffff16905090565b60006122483361092e565b612287576040517f08c379a000000000000000000000000000000000000000000000000000000000815260040161227e906148a3565b60405180910390fd5b82828173ffffffffffffffffffffffffffffffffffffffff1660016000836fffffffffffffffffffffffffffffffff19166fffffffffffffffffffffffffffffffff1916815260200190815260200160002060040160019054906101000a900473ffffffffffffffffffffffffffffffffffffffff1673ffffffffffffffffffffffffffffffffffffffff1614612353576040517f08c379a000000000000000000000000000000000000000000000000000000000815260040161234a90614883565b60405180910390fd5b6000600581111561238d577f4e487b7100000000000000000000000000000000000000000000000000000000600052602160045260246000fd5b60016000866fffffffffffffffffffffffffffffffff19166fffffffffffffffffffffffffffffffff1916815260200190815260200160002060040160009054906101000a900460ff16600581111561240f577f4e487b7100000000000000000000000000000000000000000000000000000000600052602160045260246000fd5b1461244f576040517f08c379a000000000000000000000000000000000000000000000000000000000815260040161244690614923565b60405180910390fd5b6125ea600660003373ffffffffffffffffffffffffffffffffffffffff1673ffffffffffffffffffffffffffffffffffffffff168152602001908152602001600020600101805461249f90614c55565b80601f01602080910402602001604051908101604052809291908181526020018280546124cb90614c55565b80156125185780601f106124ed57610100808354040283529160200191612518565b820191906000526020600020905b8154815290600101906020018083116124fb57829003601f168201915b505050505060016000876fffffffffffffffffffffffffffffffff19166fffffffffffffffffffffffffffffffff19168152602001908152602001600020600501600201805461256790614c55565b80601f016020809104026020016040519081016040528092919081815260200182805461259390614c55565b80156125e05780601f106125b5576101008083540402835291602001916125e0565b820191906000526020600020905b8154815290600101906020018083116125c357829003601f168201915b5050505050611a68565b612629576040517f08c379a000000000000000000000000000000000000000000000000000000000815260040161262090614823565b60405180910390fd5b600260016000866fffffffffffffffffffffffffffffffff19166fffffffffffffffffffffffffffffffff1916815260200190815260200160002060040160006101000a81548160ff021916908360058111156126af577f4e487b7100000000000000000000000000000000000000000000000000000000600052602160045260246000fd5b021790555060019250505092915050565b60006126cb3361092e565b61270a576040517f08c379a0000000000000000000000000000000000000000000000000000000008152600401612701906148a3565b60405180910390fd5b82828173ffffffffffffffffffffffffffffffffffffffff1660016000836fffffffffffffffffffffffffffffffff19166fffffffffffffffffffffffffffffffff1916815260200190815260200160002060040160019054906101000a900473ffffffffffffffffffffffffffffffffffffffff1673ffffffffffffffffffffffffffffffffffffffff16146127d6576040517f08c379a00000000000000000000000000000000000000000000000000000000081526004016127cd90614883565b60405180910390fd5b60006005811115612810577f4e487b7100000000000000000000000000000000000000000000000000000000600052602160045260246000fd5b60016000866fffffffffffffffffffffffffffffffff19166fffffffffffffffffffffffffffffffff1916815260200190815260200160002060040160009054906101000a900460ff166005811115612892577f4e487b7100000000000000000000000000000000000000000000000000000000600052602160045260246000fd5b146128d2576040517f08c379a00000000000000000000000000000000000000000000000000000000081526004016128c990614923565b60405180910390fd5b612a6d600660003373ffffffffffffffffffffffffffffffffffffffff1673ffffffffffffffffffffffffffffffffffffffff168152602001908152602001600020600101805461292290614c55565b80601f016020809104026020016040519081016040528092919081815260200182805461294e90614c55565b801561299b5780601f106129705761010080835404028352916020019161299b565b820191906000526020600020905b81548152906001019060200180831161297e57829003601f168201915b505050505060016000876fffffffffffffffffffffffffffffffff19166fffffffffffffffffffffffffffffffff1916815260200190815260200160002060050160020180546129ea90614c55565b80601f0160208091040260200160405190810160405280929190818152602001828054612a1690614c55565b8015612a635780601f10612a3857610100808354040283529160200191612a63565b820191906000526020600020905b815481529060010190602001808311612a4657829003601f168201915b5050505050611a68565b612aac576040517f08c379a0000000000000000000000000000000000000000000000000000000008152600401612aa390614823565b60405180910390fd5b600360016000866fffffffffffffffffffffffffffffffff19166fffffffffffffffffffffffffffffffff1916815260200190815260200160002060040160006101000a81548160ff02191690836005811115612b32577f4e487b7100000000000000000000000000000000000000000000000000000000600052602160045260246000fd5b021790555060019250505092915050565b612b4c3361092e565b612b8b576040517f08c379a0000000000000000000000000000000000000000000000000000000008152600401612b82906148a3565b60405180910390fd5b600060405180608001604052808573ffffffffffffffffffffffffffffffffffffffff16815260200184815260200183815260200160011515815250905080600260008673ffffffffffffffffffffffffffffffffffffffff1673ffffffffffffffffffffffffffffffffffffffff16815260200190815260200160002060008201518160000160006101000a81548173ffffffffffffffffffffffffffffffffffffffff021916908373ffffffffffffffffffffffffffffffffffffffff1602179055506020820151816001019080519060200190612c6c929190613b03565b506040820151816002019080519060200190612c89929190613b03565b5060608201518160030160006101000a81548160ff02191690831515021790555090505050505050565b6000612cbe3361082c565b612cfd576040517f08c379a0000000000000000000000000000000000000000000000000000000008152600401612cf4906147e3565b60405180910390fd5b82828173ffffffffffffffffffffffffffffffffffffffff1660016000836fffffffffffffffffffffffffffffffff19166fffffffffffffffffffffffffffffffff1916815260200190815260200160002060040160019054906101000a900473ffffffffffffffffffffffffffffffffffffffff1673ffffffffffffffffffffffffffffffffffffffff1614612dc9576040517f08c379a0000000000000000000000000000000000000000000000000000000008152600401612dc090614883565b60405180910390fd5b3373ffffffffffffffffffffffffffffffffffffffff1660016000866fffffffffffffffffffffffffffffffff19166fffffffffffffffffffffffffffffffff1916815260200190815260200160002060050160000160009054906101000a900473ffffffffffffffffffffffffffffffffffffffff1673ffffffffffffffffffffffffffffffffffffffff1614612e96576040517f08c379a0000000000000000000000000000000000000000000000000000000008152600401612e8d906148a3565b60405180910390fd5b60006005811115612ed0577f4e487b7100000000000000000000000000000000000000000000000000000000600052602160045260246000fd5b60016000866fffffffffffffffffffffffffffffffff19166fffffffffffffffffffffffffffffffff1916815260200190815260200160002060040160009054906101000a900460ff166005811115612f52577f4e487b7100000000000000000000000000000000000000000000000000000000600052602160045260246000fd5b14612f92576040517f08c379a0000000000000000000000000000000000000000000000000000000008152600401612f8990614923565b60405180910390fd5b6001806000866fffffffffffffffffffffffffffffffff19166fffffffffffffffffffffffffffffffff1916815260200190815260200160002060040160006101000a81548160ff02191690836005811115613017577f4e487b7100000000000000000000000000000000000000000000000000000000600052602160045260246000fd5b021790555060019250505092915050565b60016020528060005260406000206000915090508060000160009054906101000a900460801b9080600101805461305e90614c55565b80601f016020809104026020016040519081016040528092919081815260200182805461308a90614c55565b80156130d75780601f106130ac576101008083540402835291602001916130d7565b820191906000526020600020905b8154815290600101906020018083116130ba57829003601f168201915b5050505050908060020154908060030154908060040160009054906101000a900460ff16908060040160019054906101000a900473ffffffffffffffffffffffffffffffffffffffff1690806005016040518060800160405290816000820160009054906101000a900473ffffffffffffffffffffffffffffffffffffffff1673ffffffffffffffffffffffffffffffffffffffff1673ffffffffffffffffffffffffffffffffffffffff16815260200160018201805461319790614c55565b80601f01602080910402602001604051908101604052809291908181526020018280546131c390614c55565b80156132105780601f106131e557610100808354040283529160200191613210565b820191906000526020600020905b8154815290600101906020018083116131f357829003601f168201915b5050505050815260200160028201805461322990614c55565b80601f016020809104026020016040519081016040528092919081815260200182805461325590614c55565b80156132a25780601f10613277576101008083540402835291602001916132a2565b820191906000526020600020905b81548152906001019060200180831161328557829003601f168201915b505050505081526020016003820160009054906101000a900460ff161515151581525050905087565b60606000600560008473ffffffffffffffffffffffffffffffffffffffff1673ffffffffffffffffffffffffffffffffffffffff16815260200190815260200160002080548060200260200160405190810160405280929190818152602001828054801561338e57602002820191906000526020600020906000905b82829054906101000a900460801b6fffffffffffffffffffffffffffffffff191681526020019060100190602082600f010492830192600103820291508084116133475790505b505050505090506000815167ffffffffffffffff8111156133d8577f4e487b7100000000000000000000000000000000000000000000000000000000600052604160045260246000fd5b60405190808252806020026020018201604052801561341157816020015b6133fe613a5f565b8152602001906001900390816133f65790505b50905060005b8251811015613864576001600084838151811061345d577f4e487b7100000000000000000000000000000000000000000000000000000000600052603260045260246000fd5b60200260200101516fffffffffffffffffffffffffffffffff19166fffffffffffffffffffffffffffffffff191681526020019081526020016000206040518060e00160405290816000820160009054906101000a900460801b6fffffffffffffffffffffffffffffffff19166fffffffffffffffffffffffffffffffff191681526020016001820180546134f190614c55565b80601f016020809104026020016040519081016040528092919081815260200182805461351d90614c55565b801561356a5780601f1061353f5761010080835404028352916020019161356a565b820191906000526020600020905b81548152906001019060200180831161354d57829003601f168201915b5050505050815260200160028201548152602001600382015481526020016004820160009054906101000a900460ff1660058111156135d2577f4e487b7100000000000000000000000000000000000000000000000000000000600052602160045260246000fd5b600581111561360a577f4e487b7100000000000000000000000000000000000000000000000000000000600052602160045260246000fd5b81526020016004820160019054906101000a900473ffffffffffffffffffffffffffffffffffffffff1673ffffffffffffffffffffffffffffffffffffffff1673ffffffffffffffffffffffffffffffffffffffff168152602001600582016040518060800160405290816000820160009054906101000a900473ffffffffffffffffffffffffffffffffffffffff1673ffffffffffffffffffffffffffffffffffffffff1673ffffffffffffffffffffffffffffffffffffffff1681526020016001820180546136da90614c55565b80601f016020809104026020016040519081016040528092919081815260200182805461370690614c55565b80156137535780601f1061372857610100808354040283529160200191613753565b820191906000526020600020905b81548152906001019060200180831161373657829003601f168201915b5050505050815260200160028201805461376c90614c55565b80601f016020809104026020016040519081016040528092919081815260200182805461379890614c55565b80156137e55780601f106137ba576101008083540402835291602001916137e5565b820191906000526020600020905b8154815290600101906020018083116137c857829003601f168201915b505050505081526020016003820160009054906101000a900460ff16151515158152505081525050828281518110613846577f4e487b7100000000000000000000000000000000000000000000000000000000600052603260045260246000fd5b6020026020010181905250808061385c90614cb8565b915050613417565b508092505050919050565b613877613993565b73ffffffffffffffffffffffffffffffffffffffff16613895612214565b73ffffffffffffffffffffffffffffffffffffffff16146138eb576040517f08c379a00000000000000000000000000000000000000000000000000000000081526004016138e2906148e3565b60405180910390fd5b600073ffffffffffffffffffffffffffffffffffffffff168173ffffffffffffffffffffffffffffffffffffffff16141561395b576040517f08c379a000000000000000000000000000000000000000000000000000000000815260040161395290614803565b60405180910390fd5b6139648161399b565b50565b600081836139759190614ad0565b905092915050565b6000818361398b9190614a7a565b905092915050565b600033905090565b60008060009054906101000a900473ffffffffffffffffffffffffffffffffffffffff169050816000806101000a81548173ffffffffffffffffffffffffffffffffffffffff021916908373ffffffffffffffffffffffffffffffffffffffff1602179055508173ffffffffffffffffffffffffffffffffffffffff168173ffffffffffffffffffffffffffffffffffffffff167f8be0079c531659141344cd1fd0a4f28419497f9722a3daafe3b4186f6b6457e060405160405180910390a35050565b6040518060e0016040528060006fffffffffffffffffffffffffffffffff1916815260200160608152602001600081526020016000815260200160006005811115613ad3577f4e487b7100000000000000000000000000000000000000000000000000000000600052602160045260246000fd5b8152602001600073ffffffffffffffffffffffffffffffffffffffff168152602001613afd613b89565b81525090565b828054613b0f90614c55565b90600052602060002090601f016020900481019282613b315760008555613b78565b82601f10613b4a57805160ff1916838001178555613b78565b82800160010185558215613b78579182015b82811115613b77578251825591602001919060010190613b5c565b5b509050613b859190613bc9565b5090565b6040518060800160405280600073ffffffffffffffffffffffffffffffffffffffff16815260200160608152602001606081526020016000151581525090565b5b80821115613be2576000816000905550600101613bca565b5090565b6000613bf9613bf4846149ac565b614987565b90508083825260208201905082856020860282011115613c1857600080fd5b60005b85811015613c6257813567ffffffffffffffff811115613c3a57600080fd5b808601613c478982613d5d565b85526020850194506020840193505050600181019050613c1b565b5050509392505050565b6000613c7f613c7a846149d8565b614987565b905082815260208101848484011115613c9757600080fd5b613ca2848285614c13565b509392505050565b600081359050613cb981615052565b92915050565b600081359050613cce81615069565b92915050565b600082601f830112613ce557600080fd5b8135613cf5848260208601613be6565b91505092915050565b600081359050613d0d81615080565b92915050565b60008083601f840112613d2557600080fd5b8235905067ffffffffffffffff811115613d3e57600080fd5b602083019150836001820283011115613d5657600080fd5b9250929050565b600082601f830112613d6e57600080fd5b8135613d7e848260208601613c6c565b91505092915050565b600081359050613d9681615097565b92915050565b600081519050613dab81615097565b92915050565b600060208284031215613dc357600080fd5b6000613dd184828501613caa565b91505092915050565b600080600080600060808688031215613df257600080fd5b6000613e0088828901613cbf565b955050602086013567ffffffffffffffff811115613e1d57600080fd5b613e2988828901613d13565b94509450506040613e3c88828901613d87565b9250506060613e4d88828901613d87565b9150509295509295909350565b60008060408385031215613e6d57600080fd5b6000613e7b85828601613caa565b925050602083013567ffffffffffffffff811115613e9857600080fd5b613ea485828601613cd4565b9150509250929050565b60008060408385031215613ec157600080fd5b6000613ecf85828601613caa565b9250506020613ee085828601613cfe565b9150509250929050565b60008060408385031215613efd57600080fd5b6000613f0b85828601613caa565b925050602083013567ffffffffffffffff811115613f2857600080fd5b613f3485828601613d5d565b9150509250929050565b600080600060608486031215613f5357600080fd5b6000613f6186828701613caa565b935050602084013567ffffffffffffffff811115613f7e57600080fd5b613f8a86828701613d5d565b925050604084013567ffffffffffffffff811115613fa757600080fd5b613fb386828701613d5d565b9150509250925092565b600060208284031215613fcf57600080fd5b600082013567ffffffffffffffff811115613fe957600080fd5b613ff584828501613cd4565b91505092915050565b60006020828403121561401057600080fd5b600061401e84828501613cfe565b91505092915050565b60006020828403121561403957600080fd5b600082013567ffffffffffffffff81111561405357600080fd5b61405f84828501613d5d565b91505092915050565b6000806040838503121561407b57600080fd5b600083013567ffffffffffffffff81111561409557600080fd5b6140a185828601613d5d565b92505060206140b285828601613caa565b9150509250929050565b600080604083850312156140cf57600080fd5b600083013567ffffffffffffffff8111156140e957600080fd5b6140f585828601613d5d565b925050602083013567ffffffffffffffff81111561411257600080fd5b61411e85828601613d5d565b9150509250929050565b60006020828403121561413a57600080fd5b600061414884828501613d9c565b91505092915050565b600061415d83836144b3565b905092915050565b61416e81614b70565b82525050565b61417d81614b5e565b82525050565b61418c81614b5e565b82525050565b6141a361419e82614b5e565b614d01565b82525050565b60006141b482614a19565b6141be8185614a3c565b9350836020820285016141d085614a09565b8060005b8581101561420c57848403895281516141ed8582614151565b94506141f883614a2f565b925060208a019950506001810190506141d4565b50829750879550505050505092915050565b61422781614b82565b82525050565b61423681614b82565b82525050565b61424581614b8e565b82525050565b61425481614b8e565b82525050565b61426b61426682614bba565b614d13565b82525050565b61427a81614c01565b82525050565b61428981614c01565b82525050565b600061429a82614a24565b6142a48185614a4d565b93506142b4818560208601614c22565b6142bd81614deb565b840191505092915050565b60006142d382614a24565b6142dd8185614a5e565b93506142ed818560208601614c22565b6142f681614deb565b840191505092915050565b600061430c82614a24565b6143168185614a6f565b9350614326818560208601614c22565b80840191505092915050565b600061433f601a83614a5e565b915061434a82614e09565b602082019050919050565b6000614362602683614a5e565b915061436d82614e32565b604082019050919050565b6000614385602683614a5e565b915061439082614e81565b604082019050919050565b60006143a8600e83614a5e565b91506143b382614ed0565b602082019050919050565b60006143cb601383614a5e565b91506143d682614ef9565b602082019050919050565b60006143ee602283614a5e565b91506143f982614f22565b604082019050919050565b6000614411601183614a5e565b915061441c82614f71565b602082019050919050565b6000614434600d83614a5e565b915061443f82614f9a565b602082019050919050565b6000614457602083614a5e565b915061446282614fc3565b602082019050919050565b600061447a601783614a5e565b915061448582614fec565b602082019050919050565b600061449d601583614a5e565b91506144a882615015565b602082019050919050565b600060e0830160008301516144cb600086018261423c565b50602083015184820360208601526144e3828261428f565b91505060408301516144f8604086018261462a565b50606083015161450b606086018261462a565b50608083015161451e6080860182614271565b5060a083015161453160a0860182614174565b5060c083015184820360c08601526145498282614556565b9150508091505092915050565b600060808301600083015161456e6000860182614174565b5060208301518482036020860152614586828261428f565b915050604083015184820360408601526145a0828261428f565b91505060608301516145b5606086018261421e565b508091505092915050565b60006080830160008301516145d86000860182614174565b50602083015184820360208601526145f0828261428f565b9150506040830151848203604086015261460a828261428f565b915050606083015161461f606086018261421e565b508091505092915050565b61463381614bf7565b82525050565b61464281614bf7565b82525050565b60006146548285614192565b601482019150614664828461425a565b6020820191508190509392505050565b60006146808284614301565b915081905092915050565b60006020820190506146a06000830184614183565b92915050565b60006080820190506146bb6000830187614183565b81810360208301526146cd81866142c8565b905081810360408301526146e181856142c8565b90506146f0606083018461422d565b95945050505050565b6000602082019050818103600083015261471381846141a9565b905092915050565b6000602082019050614730600083018461422d565b92915050565b600060408201905061474b600083018561422d565b818103602083015261475d81846142c8565b90509392505050565b600060e08201905061477b600083018a61424b565b818103602083015261478d81896142c8565b905061479c6040830188614639565b6147a96060830187614639565b6147b66080830186614280565b6147c360a0830185614183565b81810360c08301526147d581846145c0565b905098975050505050505050565b600060208201905081810360008301526147fc81614332565b9050919050565b6000602082019050818103600083015261481c81614355565b9050919050565b6000602082019050818103600083015261483c81614378565b9050919050565b6000602082019050818103600083015261485c8161439b565b9050919050565b6000602082019050818103600083015261487c816143be565b9050919050565b6000602082019050818103600083015261489c816143e1565b9050919050565b600060208201905081810360008301526148bc81614404565b9050919050565b600060208201905081810360008301526148dc81614427565b9050919050565b600060208201905081810360008301526148fc8161444a565b9050919050565b6000602082019050818103600083015261491c8161446d565b9050919050565b6000602082019050818103600083015261493c81614490565b9050919050565b60006020820190506149586000830184614639565b92915050565b60006040820190506149736000830185614639565b6149806020830184614165565b9392505050565b60006149916149a2565b905061499d8282614c87565b919050565b6000604051905090565b600067ffffffffffffffff8211156149c7576149c6614dbc565b5b602082029050602081019050919050565b600067ffffffffffffffff8211156149f3576149f2614dbc565b5b6149fc82614deb565b9050602081019050919050565b6000819050602082019050919050565b600081519050919050565b600081519050919050565b6000602082019050919050565b600082825260208201905092915050565b600082825260208201905092915050565b600082825260208201905092915050565b600081905092915050565b6000614a8582614bf7565b9150614a9083614bf7565b9250827fffffffffffffffffffffffffffffffffffffffffffffffffffffffffffffffff03821115614ac557614ac4614d2f565b5b828201905092915050565b6000614adb82614bf7565b9150614ae683614bf7565b9250817fffffffffffffffffffffffffffffffffffffffffffffffffffffffffffffffff0483118215151615614b1f57614b1e614d2f565b5b828202905092915050565b6000614b3582614bf7565b9150614b4083614bf7565b925082821015614b5357614b52614d2f565b5b828203905092915050565b6000614b6982614bd7565b9050919050565b6000614b7b82614bd7565b9050919050565b60008115159050919050565b60007fffffffffffffffffffffffffffffffff0000000000000000000000000000000082169050919050565b6000819050919050565b6000819050614bd28261503e565b919050565b600073ffffffffffffffffffffffffffffffffffffffff82169050919050565b6000819050919050565b6000614c0c82614bc4565b9050919050565b82818337600083830152505050565b60005b83811015614c40578082015181840152602081019050614c25565b83811115614c4f576000848401525b50505050565b60006002820490506001821680614c6d57607f821691505b60208210811415614c8157614c80614d8d565b5b50919050565b614c9082614deb565b810181811067ffffffffffffffff82111715614caf57614cae614dbc565b5b80604052505050565b6000614cc382614bf7565b91507fffffffffffffffffffffffffffffffffffffffffffffffffffffffffffffffff821415614cf657614cf5614d2f565b5b600182019050919050565b6000614d0c82614d1d565b9050919050565b6000819050919050565b6000614d2882614dfc565b9050919050565b7f4e487b7100000000000000000000000000000000000000000000000000000000600052601160045260246000fd5b7f4e487b7100000000000000000000000000000000000000000000000000000000600052602160045260246000fd5b7f4e487b7100000000000000000000000000000000000000000000000000000000600052602260045260246000fd5b7f4e487b7100000000000000000000000000000000000000000000000000000000600052604160045260246000fd5b6000601f19601f8301169050919050565b60008160601b9050919050565b7f4f726465722043726561746f72206973206e6f742053686f702e000000000000600082015250565b7f4f776e61626c653a206e6577206f776e657220697320746865207a65726f206160008201527f6464726573730000000000000000000000000000000000000000000000000000602082015250565b7f446966666572656e7420636f756e74727920617320746865206f72646572206360008201527f7265617465640000000000000000000000000000000000000000000000000000602082015250565b7f496e76616c696420416d6f756e74000000000000000000000000000000000000600082015250565b7f4e6f20526566756e6461626c65204f7264657200000000000000000000000000600082015250565b7f496e76616c6964204275796572202f20496e76616c6964204f7264657227732060008201527f6964000000000000000000000000000000000000000000000000000000000000602082015250565b7f5065726d697373696f6e2044656e696564000000000000000000000000000000600082015250565b7f496e76616c696420507269636500000000000000000000000000000000000000600082015250565b7f4f776e61626c653a2063616c6c6572206973206e6f7420746865206f776e6572600082015250565b7f427579657220646f6e27742068617665206f7264657273000000000000000000600082015250565b7f496e76616c6964204f7264657227732053746174650000000000000000000000600082015250565b6006811061504f5761504e614d5e565b5b50565b61505b81614b5e565b811461506657600080fd5b50565b61507281614b70565b811461507d57600080fd5b50565b61508981614b8e565b811461509457600080fd5b50565b6150a081614bf7565b81146150ab57600080fd5b5056fea2646970667358221220dba0008554c2f375dc48586e0d5576d5f3d8f4d3a7127e975317631a728c896464736f6c63430008040033",
  "linkReferences": {},
  "deployedLinkReferences": {}
}