{
  "_format": "hh-sol-artifact-1",
  "contractName": "TaxRefundStorage",
  "sourceName": "contracts/TaxRefundStorage.sol",
  "abi": [
    {
      "inputs": [],
      "stateMutability": "nonpayable",
      "type": "constructor"
    },
    {
      "anonymous": false,
      "inputs": [
        {
          "indexed": true,
          "internalType": "address",
          "name": "previousOwner",
          "type": "address"
        },
        {
          "indexed": true,
          "internalType": "address",
          "name": "newOwner",
          "type": "address"
        }
      ],
      "name": "OwnershipTransferred",
      "type": "event"
    },
    {
      "inputs": [
        {
          "internalType": "address",
          "name": "",
          "type": "address"
        }
      ],
      "name": "admins",
      "outputs": [
        {
          "internalType": "bool",
          "name": "isAdmin",
          "type": "bool"
        },
        {
          "internalType": "string",
          "name": "country",
          "type": "string"
        }
      ],
      "stateMutability": "view",
      "type": "function"
    },
    {
      "inputs": [
        {
          "internalType": "address",
          "name": "buyer",
          "type": "address"
        },
        {
          "internalType": "bytes16",
          "name": "id",
          "type": "bytes16"
        }
      ],
      "name": "cancelOrder",
      "outputs": [
        {
          "internalType": "bool",
          "name": "",
          "type": "bool"
        }
      ],
      "stateMutability": "nonpayable",
      "type": "function"
    },
    {
      "inputs": [
        {
          "internalType": "address",
          "name": "buyer",
          "type": "address"
        },
        {
          "internalType": "bytes16",
          "name": "id",
          "type": "bytes16"
        }
      ],
      "name": "confirmOrder",
      "outputs": [
        {
          "internalType": "bool",
          "name": "",
          "type": "bool"
        }
      ],
      "stateMutability": "nonpayable",
      "type": "function"
    },
    {
      "inputs": [
        {
          "internalType": "address",
          "name": "addr",
          "type": "address"
        },
        {
          "internalType": "string",
          "name": "_country",
          "type": "string"
        }
      ],
      "name": "createAdmin",
      "outputs": [],
      "stateMutability": "nonpayable",
      "type": "function"
    },
    {
      "inputs": [
        {
          "internalType": "address",
          "name": "buyer",
          "type": "address"
        },
        {
          "internalType": "string",
          "name": "name",
          "type": "string"
        },
        {
          "internalType": "uint256",
          "name": "price",
          "type": "uint256"
        },
        {
          "internalType": "uint256",
          "name": "amount",
          "type": "uint256"
        }
      ],
      "name": "createOrder",
      "outputs": [],
      "stateMutability": "nonpayable",
      "type": "function"
    },
    {
      "inputs": [
        {
          "internalType": "address",
          "name": "addr",
          "type": "address"
        },
        {
          "internalType": "string",
          "name": "_name",
          "type": "string"
        },
        {
          "internalType": "string",
          "name": "_country",
          "type": "string"
        }
      ],
      "name": "createShop",
      "outputs": [],
      "stateMutability": "nonpayable",
      "type": "function"
    },
    {
      "inputs": [
        {
          "internalType": "address",
          "name": "buyer",
          "type": "address"
        }
      ],
      "name": "getAllOrdersByBuyer",
      "outputs": [
        {
          "components": [
            {
              "internalType": "bytes16",
              "name": "id",
              "type": "bytes16"
            },
            {
              "internalType": "string",
              "name": "name",
              "type": "string"
            },
            {
              "internalType": "uint256",
              "name": "price",
              "type": "uint256"
            },
            {
              "internalType": "uint256",
              "name": "amount",
              "type": "uint256"
            },
            {
              "internalType": "enum State",
              "name": "state",
              "type": "uint8"
            },
            {
              "internalType": "address",
              "name": "buyer",
              "type": "address"
            },
            {
              "components": [
                {
                  "internalType": "address",
                  "name": "shopAddr",
                  "type": "address"
                },
                {
                  "internalType": "string",
                  "name": "shopName",
                  "type": "string"
                },
                {
                  "internalType": "string",
                  "name": "country",
                  "type": "string"
                },
                {
                  "internalType": "bool",
                  "name": "exists",
                  "type": "bool"
                }
              ],
              "internalType": "struct Shop",
              "name": "shop",
              "type": "tuple"
            }
          ],
          "internalType": "struct Order[]",
          "name": "",
          "type": "tuple[]"
        }
      ],
      "stateMutability": "view",
      "type": "function"
    },
    {
      "inputs": [
        {
          "internalType": "address",
          "name": "addr",
          "type": "address"
        }
      ],
      "name": "isAdmin",
      "outputs": [
        {
          "internalType": "bool",
          "name": "",
          "type": "bool"
        }
      ],
      "stateMutability": "view",
      "type": "function"
    },
    {
      "inputs": [
        {
          "internalType": "address",
          "name": "addr",
          "type": "address"
        }
      ],
      "name": "isShop",
      "outputs": [
        {
          "internalType": "bool",
          "name": "",
          "type": "bool"
        }
      ],
      "stateMutability": "view",
      "type": "function"
    },
    {
      "inputs": [
        {
          "internalType": "bytes16",
          "name": "",
          "type": "bytes16"
        }
      ],
      "name": "orders",
      "outputs": [
        {
          "internalType": "bytes16",
          "name": "id",
          "type": "bytes16"
        },
        {
          "internalType": "string",
          "name": "name",
          "type": "string"
        },
        {
          "internalType": "uint256",
          "name": "price",
          "type": "uint256"
        },
        {
          "internalType": "uint256",
          "name": "amount",
          "type": "uint256"
        },
        {
          "internalType": "enum State",
          "name": "state",
          "type": "uint8"
        },
        {
          "internalType": "address",
          "name": "buyer",
          "type": "address"
        },
        {
          "components": [
            {
              "internalType": "address",
              "name": "shopAddr",
              "type": "address"
            },
            {
              "internalType": "string",
              "name": "shopName",
              "type": "string"
            },
            {
              "internalType": "string",
              "name": "country",
              "type": "string"
            },
            {
              "internalType": "bool",
              "name": "exists",
              "type": "bool"
            }
          ],
          "internalType": "struct Shop",
          "name": "shop",
          "type": "tuple"
        }
      ],
      "stateMutability": "view",
      "type": "function"
    },
    {
      "inputs": [],
      "name": "owner",
      "outputs": [
        {
          "internalType": "address",
          "name": "",
          "type": "address"
        }
      ],
      "stateMutability": "view",
      "type": "function"
    },
    {
      "inputs": [
        {
          "internalType": "bytes16[]",
          "name": "_orderIds",
          "type": "bytes16[]"
        },
        {
          "internalType": "string",
          "name": "countyCode",
          "type": "string"
        },
        {
          "internalType": "address payable",
          "name": "buyer",
          "type": "address"
        }
      ],
      "name": "refund",
      "outputs": [],
      "stateMutability": "nonpayable",
      "type": "function"
    },
    {
      "inputs": [
        {
          "internalType": "string",
          "name": "",
          "type": "string"
        }
      ],
      "name": "refundAddress",
      "outputs": [
        {
          "internalType": "address",
          "name": "",
          "type": "address"
        }
      ],
      "stateMutability": "view",
      "type": "function"
    },
    {
      "inputs": [
        {
          "internalType": "address",
          "name": "buyer",
          "type": "address"
        },
        {
          "internalType": "bytes16",
          "name": "id",
          "type": "bytes16"
        }
      ],
      "name": "rejectOrder",
      "outputs": [
        {
          "internalType": "bool",
          "name": "",
          "type": "bool"
        }
      ],
      "stateMutability": "nonpayable",
      "type": "function"
    },
    {
      "inputs": [],
      "name": "renounceOwnership",
      "outputs": [],
      "stateMutability": "nonpayable",
      "type": "function"
    },
    {
      "inputs": [
        {
          "internalType": "string",
          "name": "countryCode",
          "type": "string"
        },
        {
          "internalType": "address",
          "name": "_refundAddress",
          "type": "address"
        }
      ],
      "name": "setRefundAddress",
      "outputs": [],
      "stateMutability": "nonpayable",
      "type": "function"
    },
    {
      "inputs": [
        {
          "internalType": "address",
          "name": "",
          "type": "address"
        }
      ],
      "name": "shops",
      "outputs": [
        {
          "internalType": "address",
          "name": "shopAddr",
          "type": "address"
        },
        {
          "internalType": "string",
          "name": "shopName",
          "type": "string"
        },
        {
          "internalType": "string",
          "name": "country",
          "type": "string"
        },
        {
          "internalType": "bool",
          "name": "exists",
          "type": "bool"
        }
      ],
      "stateMutability": "view",
      "type": "function"
    },
    {
      "inputs": [
        {
          "internalType": "address",
          "name": "newOwner",
          "type": "address"
        }
      ],
      "name": "transferOwnership",
      "outputs": [],
      "stateMutability": "nonpayable",
      "type": "function"
    }
  ],
  "bytecode": "0x60806040523480156200001157600080fd5b5062000032620000266200011560201b60201c565b6200011d60201b60201c565b60405180604001604052806001151581526020016040518060400160405280600481526020017f4e4f4e45000000000000000000000000000000000000000000000000000000008152508152506005600062000093620001e160201b60201c565b73ffffffffffffffffffffffffffffffffffffffff1673ffffffffffffffffffffffffffffffffffffffff16815260200190815260200160002060008201518160000160006101000a81548160ff02191690831515021790555060208201518160010190805190602001906200010b9291906200020a565b509050506200031f565b600033905090565b60008060009054906101000a900473ffffffffffffffffffffffffffffffffffffffff169050816000806101000a81548173ffffffffffffffffffffffffffffffffffffffff021916908373ffffffffffffffffffffffffffffffffffffffff1602179055508173ffffffffffffffffffffffffffffffffffffffff168173ffffffffffffffffffffffffffffffffffffffff167f8be0079c531659141344cd1fd0a4f28419497f9722a3daafe3b4186f6b6457e060405160405180910390a35050565b60008060009054906101000a900473ffffffffffffffffffffffffffffffffffffffff16905090565b8280546200021890620002ba565b90600052602060002090601f0160209004810192826200023c576000855562000288565b82601f106200025757805160ff191683800117855562000288565b8280016001018555821562000288579182015b82811115620002875782518255916020019190600101906200026a565b5b5090506200029791906200029b565b5090565b5b80821115620002b65760008160009055506001016200029c565b5090565b60006002820490506001821680620002d357607f821691505b60208210811415620002ea57620002e9620002f0565b5b50919050565b7f4e487b7100000000000000000000000000000000000000000000000000000000600052602260045260246000fd5b614190806200032f6000396000f3fe608060405234801561001057600080fd5b50600436106101165760003560e01c8063715018a6116100a2578063a54c275011610071578063a54c275014610307578063a8e9f8e214610323578063c5c7312414610353578063e2fd546414610389578063f2fde38b146103b957610116565b8063715018a61461027f57806388ad7cd0146102895780638da5cb5b146102b95780639270a6dd146102d757610116565b806328e81227116100e957806328e81227146101b35780632dca1fcc146101cf578063429b62e5146102025780634b211cc6146102335780636b17e2fb1461024f57610116565b8063157591141461011b5780631d0e8a4d146101375780631e5017861461016757806324d7806c14610183575b600080fd5b61013560048036038101906101309190613147565b6103d5565b005b610151600480360381019061014c9190612f8f565b610748565b60405161015e919061382b565b60405180910390f35b610181600480360381019061017c9190613230565b6107a1565b005b61019d60048036038101906101989190612f8f565b61084a565b6040516101aa919061382b565b60405180910390f35b6101cd60048036038101906101c89190612ff4565b6108a3565b005b6101e960048036038101906101e49190612f8f565b610f68565b6040516101f994939291906137b6565b60405180910390f35b61021c60048036038101906102179190612f8f565b6110d5565b60405161022a929190613846565b60405180910390f35b61024d60048036038101906102489190613074565b61118e565b005b610269600480360381019061026491906131ef565b611277565b604051610276919061379b565b60405180910390f35b6102876112c0565b005b6102a3600480360381019061029e9190612fb8565b611348565b6040516102b0919061382b565b60405180910390f35b6102c16117cb565b6040516102ce919061379b565b60405180910390f35b6102f160048036038101906102ec9190612fb8565b6117f4565b6040516102fe919061382b565b60405180910390f35b610321600480360381019061031c91906130c8565b611c77565b005b61033d60048036038101906103389190612fb8565b611de7565b60405161034a919061382b565b60405180910390f35b61036d600480360381019061036891906131c6565b612259565b6040516103809796959493929190613876565b60405180910390f35b6103a3600480360381019061039e9190612f8f565b6124fc565b6040516103b09190613809565b60405180910390f35b6103d360048036038101906103ce9190612f8f565b612a23565b005b6103de3361084a565b61041d576040517f08c379a000000000000000000000000000000000000000000000000000000000815260040161041490613973565b60405180910390fd5b6000805b8451811015610690576000858281518110610465577f4e487b7100000000000000000000000000000000000000000000000000000000600052603260045260246000fd5b60200260200101519050600060016000836fffffffffffffffffffffffffffffffff19166fffffffffffffffffffffffffffffffff19168152602001908152602001600020600201549050600060016000846fffffffffffffffffffffffffffffffff19166fffffffffffffffffffffffffffffffff191681526020019081526020016000206003015490506105c260016000856fffffffffffffffffffffffffffffffff19166fffffffffffffffffffffffffffffffff19168152602001908152602001600020600501600201805461053e90613d2a565b80601f016020809104026020016040519081016040528092919081815260200182805461056a90613d2a565b80156105b75780601f1061058c576101008083540402835291602001916105b7565b820191906000526020600020905b81548152906001019060200180831161059a57829003601f168201915b505050505088612b1b565b1561067a57600460016000856fffffffffffffffffffffffffffffffff19166fffffffffffffffffffffffffffffffff1916815260200190815260200160002060040160006101000a81548160ff0219169083600481111561064d577f4e487b7100000000000000000000000000000000000000000000000000000000600052602160045260246000fd5b02179055506106776106688284612b7490919063ffffffff16565b86612b8a90919063ffffffff16565b94505b505050808061068890613d8d565b915050610421565b5060006003846040516106a39190613784565b908152602001604051809103902060009054906101000a900473ffffffffffffffffffffffffffffffffffffffff1690508073ffffffffffffffffffffffffffffffffffffffff16637ad226dc83856040518363ffffffff1660e01b815260040161070f929190613a33565b600060405180830381600087803b15801561072957600080fd5b505af115801561073d573d6000803e3d6000fd5b505050505050505050565b6000600260008373ffffffffffffffffffffffffffffffffffffffff1673ffffffffffffffffffffffffffffffffffffffff16815260200190815260200160002060030160009054906101000a900460ff169050919050565b6107aa3361084a565b6107e9576040517f08c379a00000000000000000000000000000000000000000000000000000000081526004016107e090613973565b60405180910390fd5b806003836040516107fa9190613784565b908152602001604051809103902060006101000a81548173ffffffffffffffffffffffffffffffffffffffff021916908373ffffffffffffffffffffffffffffffffffffffff1602179055505050565b6000600560008373ffffffffffffffffffffffffffffffffffffffff1673ffffffffffffffffffffffffffffffffffffffff16815260200190815260200160002060000160009054906101000a900460ff169050919050565b6108ac33610748565b6108eb576040517f08c379a00000000000000000000000000000000000000000000000000000000081526004016108e2906138f3565b60405180910390fd5b6000821161092e576040517f08c379a000000000000000000000000000000000000000000000000000000000815260040161092590613993565b60405180910390fd5b60008111610971576040517f08c379a000000000000000000000000000000000000000000000000000000000815260040161096890613933565b60405180910390fd5b610979612c6c565b336001436109879190613bff565b40604051602001610999929190613758565b6040516020818303038152906040528051906020012081600001906fffffffffffffffffffffffffffffffff191690816fffffffffffffffffffffffffffffffff19168152505084848080601f016020809104026020016040519081016040528093929190818152602001838380828437600081840152601f19601f8201169050808301925050505050505081602001819052508281604001818152505081816060018181525050858160a0019073ffffffffffffffffffffffffffffffffffffffff16908173ffffffffffffffffffffffffffffffffffffffff1681525050600081608001906004811115610ab8577f4e487b7100000000000000000000000000000000000000000000000000000000600052602160045260246000fd5b90816004811115610af2577f4e487b7100000000000000000000000000000000000000000000000000000000600052602160045260246000fd5b81525050600260003373ffffffffffffffffffffffffffffffffffffffff1673ffffffffffffffffffffffffffffffffffffffff1681526020019081526020016000206040518060800160405290816000820160009054906101000a900473ffffffffffffffffffffffffffffffffffffffff1673ffffffffffffffffffffffffffffffffffffffff1673ffffffffffffffffffffffffffffffffffffffff168152602001600182018054610ba690613d2a565b80601f0160208091040260200160405190810160405280929190818152602001828054610bd290613d2a565b8015610c1f5780601f10610bf457610100808354040283529160200191610c1f565b820191906000526020600020905b815481529060010190602001808311610c0257829003601f168201915b50505050508152602001600282018054610c3890613d2a565b80601f0160208091040260200160405190810160405280929190818152602001828054610c6490613d2a565b8015610cb15780601f10610c8657610100808354040283529160200191610cb1565b820191906000526020600020905b815481529060010190602001808311610c9457829003601f168201915b505050505081526020016003820160009054906101000a900460ff1615151515815250508160c00181905250600460008773ffffffffffffffffffffffffffffffffffffffff1673ffffffffffffffffffffffffffffffffffffffff168152602001908152602001600020816000015190806001815401808255809150506001900390600052602060002090600291828204019190066010029091909190916101000a8154816fffffffffffffffffffffffffffffffff021916908360801c0217905550806001600083600001516fffffffffffffffffffffffffffffffff19166fffffffffffffffffffffffffffffffff1916815260200190815260200160002060008201518160000160006101000a8154816fffffffffffffffffffffffffffffffff021916908360801c02179055506020820151816001019080519060200190610dff929190612d10565b50604082015181600201556060820151816003015560808201518160040160006101000a81548160ff02191690836004811115610e65577f4e487b7100000000000000000000000000000000000000000000000000000000600052602160045260246000fd5b021790555060a08201518160040160016101000a81548173ffffffffffffffffffffffffffffffffffffffff021916908373ffffffffffffffffffffffffffffffffffffffff16021790555060c08201518160050160008201518160000160006101000a81548173ffffffffffffffffffffffffffffffffffffffff021916908373ffffffffffffffffffffffffffffffffffffffff1602179055506020820151816001019080519060200190610f1d929190612d10565b506040820151816002019080519060200190610f3a929190612d10565b5060608201518160030160006101000a81548160ff0219169083151502179055505050905050505050505050565b60026020528060005260406000206000915090508060000160009054906101000a900473ffffffffffffffffffffffffffffffffffffffff1690806001018054610fb190613d2a565b80601f0160208091040260200160405190810160405280929190818152602001828054610fdd90613d2a565b801561102a5780601f10610fff5761010080835404028352916020019161102a565b820191906000526020600020905b81548152906001019060200180831161100d57829003601f168201915b50505050509080600201805461103f90613d2a565b80601f016020809104026020016040519081016040528092919081815260200182805461106b90613d2a565b80156110b85780601f1061108d576101008083540402835291602001916110b8565b820191906000526020600020905b81548152906001019060200180831161109b57829003601f168201915b5050505050908060030160009054906101000a900460ff16905084565b60056020528060005260406000206000915090508060000160009054906101000a900460ff169080600101805461110b90613d2a565b80601f016020809104026020016040519081016040528092919081815260200182805461113790613d2a565b80156111845780601f1061115957610100808354040283529160200191611184565b820191906000526020600020905b81548152906001019060200180831161116757829003601f168201915b5050505050905082565b6111973361084a565b6111d6576040517f08c379a00000000000000000000000000000000000000000000000000000000081526004016111cd90613973565b60405180910390fd5b6000604051806040016040528060011515815260200183815250905080600560008573ffffffffffffffffffffffffffffffffffffffff1673ffffffffffffffffffffffffffffffffffffffff16815260200190815260200160002060008201518160000160006101000a81548160ff021916908315150217905550602082015181600101908051906020019061126e929190612d10565b50905050505050565b6003818051602081018201805184825260208301602085012081835280955050505050506000915054906101000a900473ffffffffffffffffffffffffffffffffffffffff1681565b6112c8612ba0565b73ffffffffffffffffffffffffffffffffffffffff166112e66117cb565b73ffffffffffffffffffffffffffffffffffffffff161461133c576040517f08c379a0000000000000000000000000000000000000000000000000000000008152600401611333906139b3565b60405180910390fd5b6113466000612ba8565b565b60006113533361084a565b611392576040517f08c379a000000000000000000000000000000000000000000000000000000000815260040161138990613973565b60405180910390fd5b82828173ffffffffffffffffffffffffffffffffffffffff1660016000836fffffffffffffffffffffffffffffffff19166fffffffffffffffffffffffffffffffff1916815260200190815260200160002060040160019054906101000a900473ffffffffffffffffffffffffffffffffffffffff1673ffffffffffffffffffffffffffffffffffffffff161461145e576040517f08c379a000000000000000000000000000000000000000000000000000000000815260040161145590613953565b60405180910390fd5b60006004811115611498577f4e487b7100000000000000000000000000000000000000000000000000000000600052602160045260246000fd5b60016000866fffffffffffffffffffffffffffffffff19166fffffffffffffffffffffffffffffffff1916815260200190815260200160002060040160009054906101000a900460ff16600481111561151a577f4e487b7100000000000000000000000000000000000000000000000000000000600052602160045260246000fd5b1461155a576040517f08c379a0000000000000000000000000000000000000000000000000000000008152600401611551906139f3565b60405180910390fd5b6116f5600560003373ffffffffffffffffffffffffffffffffffffffff1673ffffffffffffffffffffffffffffffffffffffff16815260200190815260200160002060010180546115aa90613d2a565b80601f01602080910402602001604051908101604052809291908181526020018280546115d690613d2a565b80156116235780601f106115f857610100808354040283529160200191611623565b820191906000526020600020905b81548152906001019060200180831161160657829003601f168201915b505050505060016000876fffffffffffffffffffffffffffffffff19166fffffffffffffffffffffffffffffffff19168152602001908152602001600020600501600201805461167290613d2a565b80601f016020809104026020016040519081016040528092919081815260200182805461169e90613d2a565b80156116eb5780601f106116c0576101008083540402835291602001916116eb565b820191906000526020600020905b8154815290600101906020018083116116ce57829003601f168201915b5050505050612b1b565b611734576040517f08c379a000000000000000000000000000000000000000000000000000000000815260040161172b906139d3565b60405180910390fd5b600260016000866fffffffffffffffffffffffffffffffff19166fffffffffffffffffffffffffffffffff1916815260200190815260200160002060040160006101000a81548160ff021916908360048111156117ba577f4e487b7100000000000000000000000000000000000000000000000000000000600052602160045260246000fd5b021790555060019250505092915050565b60008060009054906101000a900473ffffffffffffffffffffffffffffffffffffffff16905090565b60006117ff3361084a565b61183e576040517f08c379a000000000000000000000000000000000000000000000000000000000815260040161183590613973565b60405180910390fd5b82828173ffffffffffffffffffffffffffffffffffffffff1660016000836fffffffffffffffffffffffffffffffff19166fffffffffffffffffffffffffffffffff1916815260200190815260200160002060040160019054906101000a900473ffffffffffffffffffffffffffffffffffffffff1673ffffffffffffffffffffffffffffffffffffffff161461190a576040517f08c379a000000000000000000000000000000000000000000000000000000000815260040161190190613953565b60405180910390fd5b60026004811115611944577f4e487b7100000000000000000000000000000000000000000000000000000000600052602160045260246000fd5b60016000866fffffffffffffffffffffffffffffffff19166fffffffffffffffffffffffffffffffff1916815260200190815260200160002060040160009054906101000a900460ff1660048111156119c6577f4e487b7100000000000000000000000000000000000000000000000000000000600052602160045260246000fd5b14611a06576040517f08c379a00000000000000000000000000000000000000000000000000000000081526004016119fd906139f3565b60405180910390fd5b611ba1600560003373ffffffffffffffffffffffffffffffffffffffff1673ffffffffffffffffffffffffffffffffffffffff1681526020019081526020016000206001018054611a5690613d2a565b80601f0160208091040260200160405190810160405280929190818152602001828054611a8290613d2a565b8015611acf5780601f10611aa457610100808354040283529160200191611acf565b820191906000526020600020905b815481529060010190602001808311611ab257829003601f168201915b505050505060016000876fffffffffffffffffffffffffffffffff19166fffffffffffffffffffffffffffffffff191681526020019081526020016000206005016002018054611b1e90613d2a565b80601f0160208091040260200160405190810160405280929190818152602001828054611b4a90613d2a565b8015611b975780601f10611b6c57610100808354040283529160200191611b97565b820191906000526020600020905b815481529060010190602001808311611b7a57829003601f168201915b5050505050612b1b565b611be0576040517f08c379a0000000000000000000000000000000000000000000000000000000008152600401611bd7906139d3565b60405180910390fd5b600360016000866fffffffffffffffffffffffffffffffff19166fffffffffffffffffffffffffffffffff1916815260200190815260200160002060040160006101000a81548160ff02191690836004811115611c66577f4e487b7100000000000000000000000000000000000000000000000000000000600052602160045260246000fd5b021790555060019250505092915050565b611c803361084a565b611cbf576040517f08c379a0000000000000000000000000000000000000000000000000000000008152600401611cb690613973565b60405180910390fd5b600060405180608001604052808573ffffffffffffffffffffffffffffffffffffffff16815260200184815260200183815260200160011515815250905080600260008673ffffffffffffffffffffffffffffffffffffffff1673ffffffffffffffffffffffffffffffffffffffff16815260200190815260200160002060008201518160000160006101000a81548173ffffffffffffffffffffffffffffffffffffffff021916908373ffffffffffffffffffffffffffffffffffffffff1602179055506020820151816001019080519060200190611da0929190612d10565b506040820151816002019080519060200190611dbd929190612d10565b5060608201518160030160006101000a81548160ff02191690831515021790555090505050505050565b6000611df233610748565b611e31576040517f08c379a0000000000000000000000000000000000000000000000000000000008152600401611e28906138f3565b60405180910390fd5b82828173ffffffffffffffffffffffffffffffffffffffff1660016000836fffffffffffffffffffffffffffffffff19166fffffffffffffffffffffffffffffffff1916815260200190815260200160002060040160019054906101000a900473ffffffffffffffffffffffffffffffffffffffff1673ffffffffffffffffffffffffffffffffffffffff1614611efd576040517f08c379a0000000000000000000000000000000000000000000000000000000008152600401611ef490613953565b60405180910390fd5b3373ffffffffffffffffffffffffffffffffffffffff1660016000866fffffffffffffffffffffffffffffffff19166fffffffffffffffffffffffffffffffff1916815260200190815260200160002060050160000160009054906101000a900473ffffffffffffffffffffffffffffffffffffffff1673ffffffffffffffffffffffffffffffffffffffff1614611fca576040517f08c379a0000000000000000000000000000000000000000000000000000000008152600401611fc190613973565b60405180910390fd5b60026004811115612004577f4e487b7100000000000000000000000000000000000000000000000000000000600052602160045260246000fd5b60016000866fffffffffffffffffffffffffffffffff19166fffffffffffffffffffffffffffffffff1916815260200190815260200160002060040160009054906101000a900460ff166004811115612086577f4e487b7100000000000000000000000000000000000000000000000000000000600052602160045260246000fd5b14156120c7576040517f08c379a00000000000000000000000000000000000000000000000000000000081526004016120be90613a13565b60405180910390fd5b600480811115612100577f4e487b7100000000000000000000000000000000000000000000000000000000600052602160045260246000fd5b60016000866fffffffffffffffffffffffffffffffff19166fffffffffffffffffffffffffffffffff1916815260200190815260200160002060040160009054906101000a900460ff166004811115612182577f4e487b7100000000000000000000000000000000000000000000000000000000600052602160045260246000fd5b14156121c3576040517f08c379a00000000000000000000000000000000000000000000000000000000081526004016121ba90613a13565b60405180910390fd5b6001806000866fffffffffffffffffffffffffffffffff19166fffffffffffffffffffffffffffffffff1916815260200190815260200160002060040160006101000a81548160ff02191690836004811115612248577f4e487b7100000000000000000000000000000000000000000000000000000000600052602160045260246000fd5b021790555060019250505092915050565b60016020528060005260406000206000915090508060000160009054906101000a900460801b9080600101805461228f90613d2a565b80601f01602080910402602001604051908101604052809291908181526020018280546122bb90613d2a565b80156123085780601f106122dd57610100808354040283529160200191612308565b820191906000526020600020905b8154815290600101906020018083116122eb57829003601f168201915b5050505050908060020154908060030154908060040160009054906101000a900460ff16908060040160019054906101000a900473ffffffffffffffffffffffffffffffffffffffff1690806005016040518060800160405290816000820160009054906101000a900473ffffffffffffffffffffffffffffffffffffffff1673ffffffffffffffffffffffffffffffffffffffff1673ffffffffffffffffffffffffffffffffffffffff1681526020016001820180546123c890613d2a565b80601f01602080910402602001604051908101604052809291908181526020018280546123f490613d2a565b80156124415780601f1061241657610100808354040283529160200191612441565b820191906000526020600020905b81548152906001019060200180831161242457829003601f168201915b5050505050815260200160028201805461245a90613d2a565b80601f016020809104026020016040519081016040528092919081815260200182805461248690613d2a565b80156124d35780601f106124a8576101008083540402835291602001916124d3565b820191906000526020600020905b8154815290600101906020018083116124b657829003601f168201915b505050505081526020016003820160009054906101000a900460ff161515151581525050905087565b60606000600460008473ffffffffffffffffffffffffffffffffffffffff1673ffffffffffffffffffffffffffffffffffffffff1681526020019081526020016000208054806020026020016040519081016040528092919081815260200182805480156125bf57602002820191906000526020600020906000905b82829054906101000a900460801b6fffffffffffffffffffffffffffffffff191681526020019060100190602082600f010492830192600103820291508084116125785790505b50505050509050606060005b8251811015612a185760016000848381518110612611577f4e487b7100000000000000000000000000000000000000000000000000000000600052603260045260246000fd5b60200260200101516fffffffffffffffffffffffffffffffff19166fffffffffffffffffffffffffffffffff191681526020019081526020016000206040518060e00160405290816000820160009054906101000a900460801b6fffffffffffffffffffffffffffffffff19166fffffffffffffffffffffffffffffffff191681526020016001820180546126a590613d2a565b80601f01602080910402602001604051908101604052809291908181526020018280546126d190613d2a565b801561271e5780601f106126f35761010080835404028352916020019161271e565b820191906000526020600020905b81548152906001019060200180831161270157829003601f168201915b5050505050815260200160028201548152602001600382015481526020016004820160009054906101000a900460ff166004811115612786577f4e487b7100000000000000000000000000000000000000000000000000000000600052602160045260246000fd5b60048111156127be577f4e487b7100000000000000000000000000000000000000000000000000000000600052602160045260246000fd5b81526020016004820160019054906101000a900473ffffffffffffffffffffffffffffffffffffffff1673ffffffffffffffffffffffffffffffffffffffff1673ffffffffffffffffffffffffffffffffffffffff168152602001600582016040518060800160405290816000820160009054906101000a900473ffffffffffffffffffffffffffffffffffffffff1673ffffffffffffffffffffffffffffffffffffffff1673ffffffffffffffffffffffffffffffffffffffff16815260200160018201805461288e90613d2a565b80601f01602080910402602001604051908101604052809291908181526020018280546128ba90613d2a565b80156129075780601f106128dc57610100808354040283529160200191612907565b820191906000526020600020905b8154815290600101906020018083116128ea57829003601f168201915b5050505050815260200160028201805461292090613d2a565b80601f016020809104026020016040519081016040528092919081815260200182805461294c90613d2a565b80156129995780601f1061296e57610100808354040283529160200191612999565b820191906000526020600020905b81548152906001019060200180831161297c57829003601f168201915b505050505081526020016003820160009054906101000a900460ff161515151581525050815250508282815181106129fa577f4e487b7100000000000000000000000000000000000000000000000000000000600052603260045260246000fd5b60200260200101819052508080612a1090613d8d565b9150506125cb565b508092505050919050565b612a2b612ba0565b73ffffffffffffffffffffffffffffffffffffffff16612a496117cb565b73ffffffffffffffffffffffffffffffffffffffff1614612a9f576040517f08c379a0000000000000000000000000000000000000000000000000000000008152600401612a96906139b3565b60405180910390fd5b600073ffffffffffffffffffffffffffffffffffffffff168173ffffffffffffffffffffffffffffffffffffffff161415612b0f576040517f08c379a0000000000000000000000000000000000000000000000000000000008152600401612b0690613913565b60405180910390fd5b612b1881612ba8565b50565b600081604051602001612b2e9190613784565b6040516020818303038152906040528051906020012083604051602001612b559190613784565b6040516020818303038152906040528051906020012014905092915050565b60008183612b829190613ba5565b905092915050565b60008183612b989190613b4f565b905092915050565b600033905090565b60008060009054906101000a900473ffffffffffffffffffffffffffffffffffffffff169050816000806101000a81548173ffffffffffffffffffffffffffffffffffffffff021916908373ffffffffffffffffffffffffffffffffffffffff1602179055508173ffffffffffffffffffffffffffffffffffffffff168173ffffffffffffffffffffffffffffffffffffffff167f8be0079c531659141344cd1fd0a4f28419497f9722a3daafe3b4186f6b6457e060405160405180910390a35050565b6040518060e0016040528060006fffffffffffffffffffffffffffffffff1916815260200160608152602001600081526020016000815260200160006004811115612ce0577f4e487b7100000000000000000000000000000000000000000000000000000000600052602160045260246000fd5b8152602001600073ffffffffffffffffffffffffffffffffffffffff168152602001612d0a612d96565b81525090565b828054612d1c90613d2a565b90600052602060002090601f016020900481019282612d3e5760008555612d85565b82601f10612d5757805160ff1916838001178555612d85565b82800160010185558215612d85579182015b82811115612d84578251825591602001919060010190612d69565b5b509050612d929190612dd6565b5090565b6040518060800160405280600073ffffffffffffffffffffffffffffffffffffffff16815260200160608152602001606081526020016000151581525090565b5b80821115612def576000816000905550600101612dd7565b5090565b6000612e06612e0184613a81565b613a5c565b90508083825260208201905082856020860282011115612e2557600080fd5b60005b85811015612e555781612e3b8882612ef1565b845260208401935060208301925050600181019050612e28565b5050509392505050565b6000612e72612e6d84613aad565b613a5c565b905082815260208101848484011115612e8a57600080fd5b612e95848285613ce8565b509392505050565b600081359050612eac816140fe565b92915050565b600081359050612ec181614115565b92915050565b600082601f830112612ed857600080fd5b8135612ee8848260208601612df3565b91505092915050565b600081359050612f008161412c565b92915050565b60008083601f840112612f1857600080fd5b8235905067ffffffffffffffff811115612f3157600080fd5b602083019150836001820283011115612f4957600080fd5b9250929050565b600082601f830112612f6157600080fd5b8135612f71848260208601612e5f565b91505092915050565b600081359050612f8981614143565b92915050565b600060208284031215612fa157600080fd5b6000612faf84828501612e9d565b91505092915050565b60008060408385031215612fcb57600080fd5b6000612fd985828601612e9d565b9250506020612fea85828601612ef1565b9150509250929050565b60008060008060006080868803121561300c57600080fd5b600061301a88828901612e9d565b955050602086013567ffffffffffffffff81111561303757600080fd5b61304388828901612f06565b9450945050604061305688828901612f7a565b925050606061306788828901612f7a565b9150509295509295909350565b6000806040838503121561308757600080fd5b600061309585828601612e9d565b925050602083013567ffffffffffffffff8111156130b257600080fd5b6130be85828601612f50565b9150509250929050565b6000806000606084860312156130dd57600080fd5b60006130eb86828701612e9d565b935050602084013567ffffffffffffffff81111561310857600080fd5b61311486828701612f50565b925050604084013567ffffffffffffffff81111561313157600080fd5b61313d86828701612f50565b9150509250925092565b60008060006060848603121561315c57600080fd5b600084013567ffffffffffffffff81111561317657600080fd5b61318286828701612ec7565b935050602084013567ffffffffffffffff81111561319f57600080fd5b6131ab86828701612f50565b92505060406131bc86828701612eb2565b9150509250925092565b6000602082840312156131d857600080fd5b60006131e684828501612ef1565b91505092915050565b60006020828403121561320157600080fd5b600082013567ffffffffffffffff81111561321b57600080fd5b61322784828501612f50565b91505092915050565b6000806040838503121561324357600080fd5b600083013567ffffffffffffffff81111561325d57600080fd5b61326985828601612f50565b925050602061327a85828601612e9d565b9150509250929050565b600061329083836135c3565b905092915050565b6132a181613c45565b82525050565b6132b081613c33565b82525050565b6132bf81613c33565b82525050565b6132d66132d182613c33565b613dd6565b82525050565b60006132e782613aee565b6132f18185613b11565b93508360208202850161330385613ade565b8060005b8581101561333f57848403895281516133208582613284565b945061332b83613b04565b925060208a01995050600181019050613307565b50829750879550505050505092915050565b61335a81613c57565b82525050565b61336981613c57565b82525050565b61337881613c63565b82525050565b61338781613c63565b82525050565b61339e61339982613c8f565b613de8565b82525050565b6133ad81613cd6565b82525050565b6133bc81613cd6565b82525050565b60006133cd82613af9565b6133d78185613b22565b93506133e7818560208601613cf7565b6133f081613ec0565b840191505092915050565b600061340682613af9565b6134108185613b33565b9350613420818560208601613cf7565b61342981613ec0565b840191505092915050565b600061343f82613af9565b6134498185613b44565b9350613459818560208601613cf7565b80840191505092915050565b6000613472601a83613b33565b915061347d82613ede565b602082019050919050565b6000613495602683613b33565b91506134a082613f07565b604082019050919050565b60006134b8600e83613b33565b91506134c382613f56565b602082019050919050565b60006134db602283613b33565b91506134e682613f7f565b604082019050919050565b60006134fe601183613b33565b915061350982613fce565b602082019050919050565b6000613521600d83613b33565b915061352c82613ff7565b602082019050919050565b6000613544602083613b33565b915061354f82614020565b602082019050919050565b6000613567602183613b33565b915061357282614049565b604082019050919050565b600061358a601583613b33565b915061359582614098565b602082019050919050565b60006135ad600d83613b33565b91506135b8826140c1565b602082019050919050565b600060e0830160008301516135db600086018261336f565b50602083015184820360208601526135f382826133c2565b9150506040830151613608604086018261373a565b50606083015161361b606086018261373a565b50608083015161362e60808601826133a4565b5060a083015161364160a08601826132a7565b5060c083015184820360c08601526136598282613666565b9150508091505092915050565b600060808301600083015161367e60008601826132a7565b506020830151848203602086015261369682826133c2565b915050604083015184820360408601526136b082826133c2565b91505060608301516136c56060860182613351565b508091505092915050565b60006080830160008301516136e860008601826132a7565b506020830151848203602086015261370082826133c2565b9150506040830151848203604086015261371a82826133c2565b915050606083015161372f6060860182613351565b508091505092915050565b61374381613ccc565b82525050565b61375281613ccc565b82525050565b600061376482856132c5565b601482019150613774828461338d565b6020820191508190509392505050565b60006137908284613434565b915081905092915050565b60006020820190506137b060008301846132b6565b92915050565b60006080820190506137cb60008301876132b6565b81810360208301526137dd81866133fb565b905081810360408301526137f181856133fb565b90506138006060830184613360565b95945050505050565b6000602082019050818103600083015261382381846132dc565b905092915050565b60006020820190506138406000830184613360565b92915050565b600060408201905061385b6000830185613360565b818103602083015261386d81846133fb565b90509392505050565b600060e08201905061388b600083018a61337e565b818103602083015261389d81896133fb565b90506138ac6040830188613749565b6138b96060830187613749565b6138c660808301866133b3565b6138d360a08301856132b6565b81810360c08301526138e581846136d0565b905098975050505050505050565b6000602082019050818103600083015261390c81613465565b9050919050565b6000602082019050818103600083015261392c81613488565b9050919050565b6000602082019050818103600083015261394c816134ab565b9050919050565b6000602082019050818103600083015261396c816134ce565b9050919050565b6000602082019050818103600083015261398c816134f1565b9050919050565b600060208201905081810360008301526139ac81613514565b9050919050565b600060208201905081810360008301526139cc81613537565b9050919050565b600060208201905081810360008301526139ec8161355a565b9050919050565b60006020820190508181036000830152613a0c8161357d565b9050919050565b60006020820190508181036000830152613a2c816135a0565b9050919050565b6000604082019050613a486000830185613749565b613a556020830184613298565b9392505050565b6000613a66613a77565b9050613a728282613d5c565b919050565b6000604051905090565b600067ffffffffffffffff821115613a9c57613a9b613e91565b5b602082029050602081019050919050565b600067ffffffffffffffff821115613ac857613ac7613e91565b5b613ad182613ec0565b9050602081019050919050565b6000819050602082019050919050565b600081519050919050565b600081519050919050565b6000602082019050919050565b600082825260208201905092915050565b600082825260208201905092915050565b600082825260208201905092915050565b600081905092915050565b6000613b5a82613ccc565b9150613b6583613ccc565b9250827fffffffffffffffffffffffffffffffffffffffffffffffffffffffffffffffff03821115613b9a57613b99613e04565b5b828201905092915050565b6000613bb082613ccc565b9150613bbb83613ccc565b9250817fffffffffffffffffffffffffffffffffffffffffffffffffffffffffffffffff0483118215151615613bf457613bf3613e04565b5b828202905092915050565b6000613c0a82613ccc565b9150613c1583613ccc565b925082821015613c2857613c27613e04565b5b828203905092915050565b6000613c3e82613cac565b9050919050565b6000613c5082613cac565b9050919050565b60008115159050919050565b60007fffffffffffffffffffffffffffffffff0000000000000000000000000000000082169050919050565b6000819050919050565b6000819050613ca7826140ea565b919050565b600073ffffffffffffffffffffffffffffffffffffffff82169050919050565b6000819050919050565b6000613ce182613c99565b9050919050565b82818337600083830152505050565b60005b83811015613d15578082015181840152602081019050613cfa565b83811115613d24576000848401525b50505050565b60006002820490506001821680613d4257607f821691505b60208210811415613d5657613d55613e62565b5b50919050565b613d6582613ec0565b810181811067ffffffffffffffff82111715613d8457613d83613e91565b5b80604052505050565b6000613d9882613ccc565b91507fffffffffffffffffffffffffffffffffffffffffffffffffffffffffffffffff821415613dcb57613dca613e04565b5b600182019050919050565b6000613de182613df2565b9050919050565b6000819050919050565b6000613dfd82613ed1565b9050919050565b7f4e487b7100000000000000000000000000000000000000000000000000000000600052601160045260246000fd5b7f4e487b7100000000000000000000000000000000000000000000000000000000600052602160045260246000fd5b7f4e487b7100000000000000000000000000000000000000000000000000000000600052602260045260246000fd5b7f4e487b7100000000000000000000000000000000000000000000000000000000600052604160045260246000fd5b6000601f19601f8301169050919050565b60008160601b9050919050565b7f4f726465722043726561746f72206973206e6f742053686f702e000000000000600082015250565b7f4f776e61626c653a206e6577206f776e657220697320746865207a65726f206160008201527f6464726573730000000000000000000000000000000000000000000000000000602082015250565b7f496e76616c696420416d6f756e74000000000000000000000000000000000000600082015250565b7f496e76616c6964204275796572202f20496e76616c6964204f7264657227732060008201527f6964000000000000000000000000000000000000000000000000000000000000602082015250565b7f5065726d697373696f6e2044656e696564000000000000000000000000000000600082015250565b7f496e76616c696420507269636500000000000000000000000000000000000000600082015250565b7f4f776e61626c653a2063616c6c6572206973206e6f7420746865206f776e6572600082015250565b7f53616d6520636f756e74727920617320746865206f726465722063726561746560008201527f6400000000000000000000000000000000000000000000000000000000000000602082015250565b7f496e76616c6964204f7264657227732053746174650000000000000000000000600082015250565b7f496e76616c696420537461746500000000000000000000000000000000000000600082015250565b600581106140fb576140fa613e33565b5b50565b61410781613c33565b811461411257600080fd5b50565b61411e81613c45565b811461412957600080fd5b50565b61413581613c63565b811461414057600080fd5b50565b61414c81613ccc565b811461415757600080fd5b5056fea2646970667358221220d38054d99704b441ae22cc7fe3ea539191be646963c5ef45c0b68098c4671eaa64736f6c63430008040033",
  "linkReferences": {},
  "deployedLinkReferences": {}
}