{
  "_format": "hh-sol-artifact-1",
  "contractName": "TaxRefundStorage",
  "sourceName": "contracts/TaxRefundStorage.sol",
  "abi": [
    {
      "inputs": [],
      "stateMutability": "nonpayable",
      "type": "constructor"
    },
    {
      "anonymous": false,
      "inputs": [
        {
          "indexed": true,
          "internalType": "address",
          "name": "previousOwner",
          "type": "address"
        },
        {
          "indexed": true,
          "internalType": "address",
          "name": "newOwner",
          "type": "address"
        }
      ],
      "name": "OwnershipTransferred",
      "type": "event"
    },
    {
      "inputs": [
        {
          "internalType": "address",
          "name": "",
          "type": "address"
        }
      ],
      "name": "admins",
      "outputs": [
        {
          "internalType": "bool",
          "name": "isAdmin",
          "type": "bool"
        },
        {
          "internalType": "string",
          "name": "country",
          "type": "string"
        }
      ],
      "stateMutability": "view",
      "type": "function"
    },
    {
      "inputs": [
        {
          "internalType": "address",
          "name": "buyer",
          "type": "address"
        },
        {
          "internalType": "bytes16",
          "name": "id",
          "type": "bytes16"
        }
      ],
      "name": "approveOrder",
      "outputs": [
        {
          "internalType": "bool",
          "name": "",
          "type": "bool"
        }
      ],
      "stateMutability": "nonpayable",
      "type": "function"
    },
    {
      "inputs": [
        {
          "internalType": "address",
          "name": "buyer",
          "type": "address"
        },
        {
          "internalType": "bytes16",
          "name": "id",
          "type": "bytes16"
        }
      ],
      "name": "cancelOrder",
      "outputs": [
        {
          "internalType": "bool",
          "name": "",
          "type": "bool"
        }
      ],
      "stateMutability": "nonpayable",
      "type": "function"
    },
    {
      "inputs": [
        {
          "internalType": "string",
          "name": "stringA",
          "type": "string"
        },
        {
          "internalType": "string",
          "name": "stringB",
          "type": "string"
        }
      ],
      "name": "compareString",
      "outputs": [
        {
          "internalType": "bool",
          "name": "",
          "type": "bool"
        }
      ],
      "stateMutability": "pure",
      "type": "function"
    },
    {
      "inputs": [
        {
          "internalType": "address",
          "name": "buyer",
          "type": "address"
        },
        {
          "internalType": "bytes16",
          "name": "id",
          "type": "bytes16"
        }
      ],
      "name": "confirmOrder",
      "outputs": [
        {
          "internalType": "bool",
          "name": "",
          "type": "bool"
        }
      ],
      "stateMutability": "nonpayable",
      "type": "function"
    },
    {
      "inputs": [
        {
          "internalType": "address",
          "name": "addr",
          "type": "address"
        },
        {
          "internalType": "string",
          "name": "_country",
          "type": "string"
        }
      ],
      "name": "createAdmin",
      "outputs": [],
      "stateMutability": "nonpayable",
      "type": "function"
    },
    {
      "inputs": [
        {
          "internalType": "address payable",
          "name": "buyer",
          "type": "address"
        },
        {
          "internalType": "string",
          "name": "name",
          "type": "string"
        },
        {
          "internalType": "uint256",
          "name": "price",
          "type": "uint256"
        },
        {
          "internalType": "uint256",
          "name": "amount",
          "type": "uint256"
        }
      ],
      "name": "createOrder",
      "outputs": [],
      "stateMutability": "nonpayable",
      "type": "function"
    },
    {
      "inputs": [
        {
          "internalType": "address",
          "name": "addr",
          "type": "address"
        },
        {
          "internalType": "string",
          "name": "_name",
          "type": "string"
        },
        {
          "internalType": "string",
          "name": "_country",
          "type": "string"
        }
      ],
      "name": "createShop",
      "outputs": [],
      "stateMutability": "nonpayable",
      "type": "function"
    },
    {
      "inputs": [
        {
          "internalType": "address",
          "name": "buyer",
          "type": "address"
        }
      ],
      "name": "getAllOrdersByBuyer",
      "outputs": [
        {
          "components": [
            {
              "internalType": "bytes16",
              "name": "id",
              "type": "bytes16"
            },
            {
              "internalType": "string",
              "name": "name",
              "type": "string"
            },
            {
              "internalType": "uint256",
              "name": "price",
              "type": "uint256"
            },
            {
              "internalType": "uint256",
              "name": "amount",
              "type": "uint256"
            },
            {
              "internalType": "enum State",
              "name": "state",
              "type": "uint8"
            },
            {
              "internalType": "address",
              "name": "buyer",
              "type": "address"
            },
            {
              "components": [
                {
                  "internalType": "address",
                  "name": "shopAddr",
                  "type": "address"
                },
                {
                  "internalType": "string",
                  "name": "shopName",
                  "type": "string"
                },
                {
                  "internalType": "string",
                  "name": "country",
                  "type": "string"
                },
                {
                  "internalType": "bool",
                  "name": "exists",
                  "type": "bool"
                }
              ],
              "internalType": "struct Shop",
              "name": "shop",
              "type": "tuple"
            }
          ],
          "internalType": "struct Order[]",
          "name": "",
          "type": "tuple[]"
        }
      ],
      "stateMutability": "view",
      "type": "function"
    },
    {
      "inputs": [
        {
          "internalType": "address",
          "name": "buyer",
          "type": "address"
        },
        {
          "internalType": "string",
          "name": "countryCode",
          "type": "string"
        }
      ],
      "name": "getRefundAmount",
      "outputs": [
        {
          "internalType": "uint256",
          "name": "",
          "type": "uint256"
        }
      ],
      "stateMutability": "view",
      "type": "function"
    },
    {
      "inputs": [
        {
          "internalType": "address",
          "name": "addr",
          "type": "address"
        }
      ],
      "name": "isAdmin",
      "outputs": [
        {
          "internalType": "bool",
          "name": "",
          "type": "bool"
        }
      ],
      "stateMutability": "view",
      "type": "function"
    },
    {
      "inputs": [
        {
          "internalType": "address",
          "name": "addr",
          "type": "address"
        }
      ],
      "name": "isShop",
      "outputs": [
        {
          "internalType": "bool",
          "name": "",
          "type": "bool"
        }
      ],
      "stateMutability": "view",
      "type": "function"
    },
    {
      "inputs": [
        {
          "internalType": "bytes16",
          "name": "",
          "type": "bytes16"
        }
      ],
      "name": "orders",
      "outputs": [
        {
          "internalType": "bytes16",
          "name": "id",
          "type": "bytes16"
        },
        {
          "internalType": "string",
          "name": "name",
          "type": "string"
        },
        {
          "internalType": "uint256",
          "name": "price",
          "type": "uint256"
        },
        {
          "internalType": "uint256",
          "name": "amount",
          "type": "uint256"
        },
        {
          "internalType": "enum State",
          "name": "state",
          "type": "uint8"
        },
        {
          "internalType": "address",
          "name": "buyer",
          "type": "address"
        },
        {
          "components": [
            {
              "internalType": "address",
              "name": "shopAddr",
              "type": "address"
            },
            {
              "internalType": "string",
              "name": "shopName",
              "type": "string"
            },
            {
              "internalType": "string",
              "name": "country",
              "type": "string"
            },
            {
              "internalType": "bool",
              "name": "exists",
              "type": "bool"
            }
          ],
          "internalType": "struct Shop",
          "name": "shop",
          "type": "tuple"
        }
      ],
      "stateMutability": "view",
      "type": "function"
    },
    {
      "inputs": [],
      "name": "owner",
      "outputs": [
        {
          "internalType": "address",
          "name": "",
          "type": "address"
        }
      ],
      "stateMutability": "view",
      "type": "function"
    },
    {
      "inputs": [
        {
          "internalType": "address payable",
          "name": "buyer",
          "type": "address"
        },
        {
          "internalType": "string",
          "name": "countryCode",
          "type": "string"
        }
      ],
      "name": "refund",
      "outputs": [
        {
          "internalType": "uint256",
          "name": "",
          "type": "uint256"
        }
      ],
      "stateMutability": "nonpayable",
      "type": "function"
    },
    {
      "inputs": [
        {
          "internalType": "string",
          "name": "",
          "type": "string"
        }
      ],
      "name": "refundAddress",
      "outputs": [
        {
          "internalType": "address",
          "name": "",
          "type": "address"
        }
      ],
      "stateMutability": "view",
      "type": "function"
    },
    {
      "inputs": [
        {
          "internalType": "address",
          "name": "buyer",
          "type": "address"
        },
        {
          "internalType": "bytes16",
          "name": "id",
          "type": "bytes16"
        }
      ],
      "name": "rejectOrder",
      "outputs": [
        {
          "internalType": "bool",
          "name": "",
          "type": "bool"
        }
      ],
      "stateMutability": "nonpayable",
      "type": "function"
    },
    {
      "inputs": [],
      "name": "renounceOwnership",
      "outputs": [],
      "stateMutability": "nonpayable",
      "type": "function"
    },
    {
      "inputs": [
        {
          "internalType": "string",
          "name": "countryCode",
          "type": "string"
        },
        {
          "internalType": "address",
          "name": "_refundAddress",
          "type": "address"
        }
      ],
      "name": "setRefundAddress",
      "outputs": [],
      "stateMutability": "nonpayable",
      "type": "function"
    },
    {
      "inputs": [
        {
          "internalType": "address",
          "name": "",
          "type": "address"
        }
      ],
      "name": "shops",
      "outputs": [
        {
          "internalType": "address",
          "name": "shopAddr",
          "type": "address"
        },
        {
          "internalType": "string",
          "name": "shopName",
          "type": "string"
        },
        {
          "internalType": "string",
          "name": "country",
          "type": "string"
        },
        {
          "internalType": "bool",
          "name": "exists",
          "type": "bool"
        }
      ],
      "stateMutability": "view",
      "type": "function"
    },
    {
      "inputs": [
        {
          "internalType": "address",
          "name": "newOwner",
          "type": "address"
        }
      ],
      "name": "transferOwnership",
      "outputs": [],
      "stateMutability": "nonpayable",
      "type": "function"
    }
  ],
  "bytecode": "0x60806040523480156200001157600080fd5b5062000032620000266200011560201b60201c565b6200011d60201b60201c565b60405180604001604052806001151581526020016040518060400160405280600481526020017f4e4f4e45000000000000000000000000000000000000000000000000000000008152508152506005600062000093620001e160201b60201c565b73ffffffffffffffffffffffffffffffffffffffff1673ffffffffffffffffffffffffffffffffffffffff16815260200190815260200160002060008201518160000160006101000a81548160ff02191690831515021790555060208201518160010190805190602001906200010b9291906200020a565b509050506200031f565b600033905090565b60008060009054906101000a900473ffffffffffffffffffffffffffffffffffffffff169050816000806101000a81548173ffffffffffffffffffffffffffffffffffffffff021916908373ffffffffffffffffffffffffffffffffffffffff1602179055508173ffffffffffffffffffffffffffffffffffffffff168173ffffffffffffffffffffffffffffffffffffffff167f8be0079c531659141344cd1fd0a4f28419497f9722a3daafe3b4186f6b6457e060405160405180910390a35050565b60008060009054906101000a900473ffffffffffffffffffffffffffffffffffffffff16905090565b8280546200021890620002ba565b90600052602060002090601f0160209004810192826200023c576000855562000288565b82601f106200025757805160ff191683800117855562000288565b8280016001018555821562000288579182015b82811115620002875782518255916020019190600101906200026a565b5b5090506200029791906200029b565b5090565b5b80821115620002b65760008160009055506001016200029c565b5090565b60006002820490506001821680620002d357607f821691505b60208210811415620002ea57620002e9620002f0565b5b50919050565b7f4e487b7100000000000000000000000000000000000000000000000000000000600052602260045260246000fd5b614acc806200032f6000396000f3fe608060405234801561001057600080fd5b50600436106101375760003560e01c806377782ca3116100b8578063a54c27501161007c578063a54c27501461039c578063a8e9f8e2146103b8578063c5c73124146103e8578063e08d722e1461041e578063e2fd54641461044e578063f2fde38b1461047e57610137565b806377782ca3146102be57806388ad7cd0146102ee5780638da5cb5b1461031e5780639270a6dd1461033c57806397d3074f1461036c57610137565b8063429b62e5116100ff578063429b62e5146102075780634b211cc6146102385780636b17e2fb14610254578063715018a61461028457806375b831871461028e57610137565b80631d0e8a4d1461013c5780631e5017861461016c57806324d7806c1461018857806328e81227146101b85780632dca1fcc146101d4575b600080fd5b6101566004803603810190610151919061384c565b61049a565b6040516101639190614152565b60405180910390f35b61018660048036038101906101819190613ac2565b6104f3565b005b6101a2600480360381019061019d919061384c565b61059c565b6040516101af9190614152565b60405180910390f35b6101d260048036038101906101cd9190613875565b6105f5565b005b6101ee60048036038101906101e9919061384c565b610cba565b6040516101fe94939291906140dd565b60405180910390f35b610221600480360381019061021c919061384c565b610e27565b60405161022f92919061416d565b60405180910390f35b610252600480360381019061024d9190613985565b610ee0565b005b61026e60048036038101906102699190613a81565b610fc9565b60405161027b91906140c2565b60405180910390f35b61028c611012565b005b6102a860048036038101906102a39190613b16565b61109a565b6040516102b59190614152565b60405180910390f35b6102d860048036038101906102d39190613985565b6110f3565b6040516102e5919061435a565b60405180910390f35b61030860048036038101906103039190613949565b6113cc565b6040516103159190614152565b60405180910390f35b610326611850565b60405161033391906140c2565b60405180910390f35b61035660048036038101906103519190613949565b611879565b6040516103639190614152565b60405180910390f35b61038660048036038101906103819190613949565b611cfc565b6040516103939190614152565b60405180910390f35b6103b660048036038101906103b191906139d9565b61217f565b005b6103d260048036038101906103cd9190613949565b6122ef565b6040516103df9190614152565b60405180910390f35b61040260048036038101906103fd9190613a58565b612664565b604051610415979695949392919061419d565b60405180910390f35b610438600480360381019061043391906138f5565b612907565b604051610445919061435a565b60405180910390f35b6104686004803603810190610463919061384c565b612e16565b6040516104759190614130565b60405180910390f35b6104986004803603810190610493919061384c565b6133ba565b005b6000600260008373ffffffffffffffffffffffffffffffffffffffff1673ffffffffffffffffffffffffffffffffffffffff16815260200190815260200160002060030160009054906101000a900460ff169050919050565b6104fc3361059c565b61053b576040517f08c379a0000000000000000000000000000000000000000000000000000000008152600401610532906142ba565b60405180910390fd5b8060038360405161054c91906140ab565b908152602001604051809103902060006101000a81548173ffffffffffffffffffffffffffffffffffffffff021916908373ffffffffffffffffffffffffffffffffffffffff1602179055505050565b6000600560008373ffffffffffffffffffffffffffffffffffffffff1673ffffffffffffffffffffffffffffffffffffffff16815260200190815260200160002060000160009054906101000a900460ff169050919050565b6105fe3361049a565b61063d576040517f08c379a00000000000000000000000000000000000000000000000000000000081526004016106349061421a565b60405180910390fd5b60008211610680576040517f08c379a0000000000000000000000000000000000000000000000000000000008152600401610677906142da565b60405180910390fd5b600081116106c3576040517f08c379a00000000000000000000000000000000000000000000000000000000081526004016106ba9061427a565b60405180910390fd5b6106cb6135aa565b336001436106d99190614515565b406040516020016106eb92919061407f565b6040516020818303038152906040528051906020012081600001906fffffffffffffffffffffffffffffffff191690816fffffffffffffffffffffffffffffffff19168152505084848080601f016020809104026020016040519081016040528093929190818152602001838380828437600081840152601f19601f8201169050808301925050505050505081602001819052508281604001818152505081816060018181525050858160a0019073ffffffffffffffffffffffffffffffffffffffff16908173ffffffffffffffffffffffffffffffffffffffff168152505060008160800190600581111561080a577f4e487b7100000000000000000000000000000000000000000000000000000000600052602160045260246000fd5b90816005811115610844577f4e487b7100000000000000000000000000000000000000000000000000000000600052602160045260246000fd5b81525050600260003373ffffffffffffffffffffffffffffffffffffffff1673ffffffffffffffffffffffffffffffffffffffff1681526020019081526020016000206040518060800160405290816000820160009054906101000a900473ffffffffffffffffffffffffffffffffffffffff1673ffffffffffffffffffffffffffffffffffffffff1673ffffffffffffffffffffffffffffffffffffffff1681526020016001820180546108f890614640565b80601f016020809104026020016040519081016040528092919081815260200182805461092490614640565b80156109715780601f1061094657610100808354040283529160200191610971565b820191906000526020600020905b81548152906001019060200180831161095457829003601f168201915b5050505050815260200160028201805461098a90614640565b80601f01602080910402602001604051908101604052809291908181526020018280546109b690614640565b8015610a035780601f106109d857610100808354040283529160200191610a03565b820191906000526020600020905b8154815290600101906020018083116109e657829003601f168201915b505050505081526020016003820160009054906101000a900460ff1615151515815250508160c00181905250600460008773ffffffffffffffffffffffffffffffffffffffff1673ffffffffffffffffffffffffffffffffffffffff168152602001908152602001600020816000015190806001815401808255809150506001900390600052602060002090600291828204019190066010029091909190916101000a8154816fffffffffffffffffffffffffffffffff021916908360801c0217905550806001600083600001516fffffffffffffffffffffffffffffffff19166fffffffffffffffffffffffffffffffff1916815260200190815260200160002060008201518160000160006101000a8154816fffffffffffffffffffffffffffffffff021916908360801c02179055506020820151816001019080519060200190610b5192919061364e565b50604082015181600201556060820151816003015560808201518160040160006101000a81548160ff02191690836005811115610bb7577f4e487b7100000000000000000000000000000000000000000000000000000000600052602160045260246000fd5b021790555060a08201518160040160016101000a81548173ffffffffffffffffffffffffffffffffffffffff021916908373ffffffffffffffffffffffffffffffffffffffff16021790555060c08201518160050160008201518160000160006101000a81548173ffffffffffffffffffffffffffffffffffffffff021916908373ffffffffffffffffffffffffffffffffffffffff1602179055506020820151816001019080519060200190610c6f92919061364e565b506040820151816002019080519060200190610c8c92919061364e565b5060608201518160030160006101000a81548160ff0219169083151502179055505050905050505050505050565b60026020528060005260406000206000915090508060000160009054906101000a900473ffffffffffffffffffffffffffffffffffffffff1690806001018054610d0390614640565b80601f0160208091040260200160405190810160405280929190818152602001828054610d2f90614640565b8015610d7c5780601f10610d5157610100808354040283529160200191610d7c565b820191906000526020600020905b815481529060010190602001808311610d5f57829003601f168201915b505050505090806002018054610d9190614640565b80601f0160208091040260200160405190810160405280929190818152602001828054610dbd90614640565b8015610e0a5780601f10610ddf57610100808354040283529160200191610e0a565b820191906000526020600020905b815481529060010190602001808311610ded57829003601f168201915b5050505050908060030160009054906101000a900460ff16905084565b60056020528060005260406000206000915090508060000160009054906101000a900460ff1690806001018054610e5d90614640565b80601f0160208091040260200160405190810160405280929190818152602001828054610e8990614640565b8015610ed65780601f10610eab57610100808354040283529160200191610ed6565b820191906000526020600020905b815481529060010190602001808311610eb957829003601f168201915b5050505050905082565b610ee93361059c565b610f28576040517f08c379a0000000000000000000000000000000000000000000000000000000008152600401610f1f906142ba565b60405180910390fd5b6000604051806040016040528060011515815260200183815250905080600560008573ffffffffffffffffffffffffffffffffffffffff1673ffffffffffffffffffffffffffffffffffffffff16815260200190815260200160002060008201518160000160006101000a81548160ff0219169083151502179055506020820151816001019080519060200190610fc092919061364e565b50905050505050565b6003818051602081018201805184825260208301602085012081835280955050505050506000915054906101000a900473ffffffffffffffffffffffffffffffffffffffff1681565b61101a6134b2565b73ffffffffffffffffffffffffffffffffffffffff16611038611850565b73ffffffffffffffffffffffffffffffffffffffff161461108e576040517f08c379a0000000000000000000000000000000000000000000000000000000008152600401611085906142fa565b60405180910390fd5b61109860006134ba565b565b6000816040516020016110ad91906140ab565b60405160208183030381529060405280519060200120836040516020016110d491906140ab565b6040516020818303038152906040528051906020012014905092915050565b6000806110ff84612e16565b90506000805b82518110156112f4576000838281518110611149577f4e487b7100000000000000000000000000000000000000000000000000000000600052603260045260246000fd5b60200260200101516040015190506000848381518110611192577f4e487b7100000000000000000000000000000000000000000000000000000000600052603260045260246000fd5b60200260200101516060015190506111f28584815181106111dc577f4e487b7100000000000000000000000000000000000000000000000000000000600052603260045260246000fd5b602002602001015160c00151604001518861109a565b80156112b2575060046005811115611233577f4e487b7100000000000000000000000000000000000000000000000000000000600052602160045260246000fd5b85848151811061126c577f4e487b7100000000000000000000000000000000000000000000000000000000600052603260045260246000fd5b60200260200101516080015160058111156112b0577f4e487b7100000000000000000000000000000000000000000000000000000000600052602160045260246000fd5b145b156112df576112dc6112cd828461357e90919063ffffffff16565b8561359490919063ffffffff16565b93505b505080806112ec906146a3565b915050611105565b50600060038560405161130791906140ab565b908152602001604051809103902060009054906101000a900473ffffffffffffffffffffffffffffffffffffffff1690508073ffffffffffffffffffffffffffffffffffffffff166304cd5294836040518263ffffffff1660e01b8152600401611371919061435a565b60206040518083038186803b15801561138957600080fd5b505afa15801561139d573d6000803e3d6000fd5b505050506040513d601f19601f820116820180604052508101906113c19190613b82565b935050505092915050565b60006113d73361059c565b611416576040517f08c379a000000000000000000000000000000000000000000000000000000000815260040161140d906142ba565b60405180910390fd5b82828173ffffffffffffffffffffffffffffffffffffffff1660016000836fffffffffffffffffffffffffffffffff19166fffffffffffffffffffffffffffffffff1916815260200190815260200160002060040160019054906101000a900473ffffffffffffffffffffffffffffffffffffffff1673ffffffffffffffffffffffffffffffffffffffff16146114e2576040517f08c379a00000000000000000000000000000000000000000000000000000000081526004016114d99061429a565b60405180910390fd5b6003600581111561151c577f4e487b7100000000000000000000000000000000000000000000000000000000600052602160045260246000fd5b60016000866fffffffffffffffffffffffffffffffff19166fffffffffffffffffffffffffffffffff1916815260200190815260200160002060040160009054906101000a900460ff16600581111561159e577f4e487b7100000000000000000000000000000000000000000000000000000000600052602160045260246000fd5b146115de576040517f08c379a00000000000000000000000000000000000000000000000000000000081526004016115d59061433a565b60405180910390fd5b611779600560003373ffffffffffffffffffffffffffffffffffffffff1673ffffffffffffffffffffffffffffffffffffffff168152602001908152602001600020600101805461162e90614640565b80601f016020809104026020016040519081016040528092919081815260200182805461165a90614640565b80156116a75780601f1061167c576101008083540402835291602001916116a7565b820191906000526020600020905b81548152906001019060200180831161168a57829003601f168201915b505050505060016000876fffffffffffffffffffffffffffffffff19166fffffffffffffffffffffffffffffffff1916815260200190815260200160002060050160020180546116f690614640565b80601f016020809104026020016040519081016040528092919081815260200182805461172290614640565b801561176f5780601f106117445761010080835404028352916020019161176f565b820191906000526020600020905b81548152906001019060200180831161175257829003601f168201915b505050505061109a565b156117b9576040517f08c379a00000000000000000000000000000000000000000000000000000000081526004016117b09061431a565b60405180910390fd5b600460016000866fffffffffffffffffffffffffffffffff19166fffffffffffffffffffffffffffffffff1916815260200190815260200160002060040160006101000a81548160ff0219169083600581111561183f577f4e487b7100000000000000000000000000000000000000000000000000000000600052602160045260246000fd5b021790555060019250505092915050565b60008060009054906101000a900473ffffffffffffffffffffffffffffffffffffffff16905090565b60006118843361059c565b6118c3576040517f08c379a00000000000000000000000000000000000000000000000000000000081526004016118ba906142ba565b60405180910390fd5b82828173ffffffffffffffffffffffffffffffffffffffff1660016000836fffffffffffffffffffffffffffffffff19166fffffffffffffffffffffffffffffffff1916815260200190815260200160002060040160019054906101000a900473ffffffffffffffffffffffffffffffffffffffff1673ffffffffffffffffffffffffffffffffffffffff161461198f576040517f08c379a00000000000000000000000000000000000000000000000000000000081526004016119869061429a565b60405180910390fd5b600060058111156119c9577f4e487b7100000000000000000000000000000000000000000000000000000000600052602160045260246000fd5b60016000866fffffffffffffffffffffffffffffffff19166fffffffffffffffffffffffffffffffff1916815260200190815260200160002060040160009054906101000a900460ff166005811115611a4b577f4e487b7100000000000000000000000000000000000000000000000000000000600052602160045260246000fd5b14611a8b576040517f08c379a0000000000000000000000000000000000000000000000000000000008152600401611a829061433a565b60405180910390fd5b611c26600560003373ffffffffffffffffffffffffffffffffffffffff1673ffffffffffffffffffffffffffffffffffffffff1681526020019081526020016000206001018054611adb90614640565b80601f0160208091040260200160405190810160405280929190818152602001828054611b0790614640565b8015611b545780601f10611b2957610100808354040283529160200191611b54565b820191906000526020600020905b815481529060010190602001808311611b3757829003601f168201915b505050505060016000876fffffffffffffffffffffffffffffffff19166fffffffffffffffffffffffffffffffff191681526020019081526020016000206005016002018054611ba390614640565b80601f0160208091040260200160405190810160405280929190818152602001828054611bcf90614640565b8015611c1c5780601f10611bf157610100808354040283529160200191611c1c565b820191906000526020600020905b815481529060010190602001808311611bff57829003601f168201915b505050505061109a565b611c65576040517f08c379a0000000000000000000000000000000000000000000000000000000008152600401611c5c9061425a565b60405180910390fd5b600260016000866fffffffffffffffffffffffffffffffff19166fffffffffffffffffffffffffffffffff1916815260200190815260200160002060040160006101000a81548160ff02191690836005811115611ceb577f4e487b7100000000000000000000000000000000000000000000000000000000600052602160045260246000fd5b021790555060019250505092915050565b6000611d073361059c565b611d46576040517f08c379a0000000000000000000000000000000000000000000000000000000008152600401611d3d906142ba565b60405180910390fd5b82828173ffffffffffffffffffffffffffffffffffffffff1660016000836fffffffffffffffffffffffffffffffff19166fffffffffffffffffffffffffffffffff1916815260200190815260200160002060040160019054906101000a900473ffffffffffffffffffffffffffffffffffffffff1673ffffffffffffffffffffffffffffffffffffffff1614611e12576040517f08c379a0000000000000000000000000000000000000000000000000000000008152600401611e099061429a565b60405180910390fd5b60006005811115611e4c577f4e487b7100000000000000000000000000000000000000000000000000000000600052602160045260246000fd5b60016000866fffffffffffffffffffffffffffffffff19166fffffffffffffffffffffffffffffffff1916815260200190815260200160002060040160009054906101000a900460ff166005811115611ece577f4e487b7100000000000000000000000000000000000000000000000000000000600052602160045260246000fd5b14611f0e576040517f08c379a0000000000000000000000000000000000000000000000000000000008152600401611f059061433a565b60405180910390fd5b6120a9600560003373ffffffffffffffffffffffffffffffffffffffff1673ffffffffffffffffffffffffffffffffffffffff1681526020019081526020016000206001018054611f5e90614640565b80601f0160208091040260200160405190810160405280929190818152602001828054611f8a90614640565b8015611fd75780601f10611fac57610100808354040283529160200191611fd7565b820191906000526020600020905b815481529060010190602001808311611fba57829003601f168201915b505050505060016000876fffffffffffffffffffffffffffffffff19166fffffffffffffffffffffffffffffffff19168152602001908152602001600020600501600201805461202690614640565b80601f016020809104026020016040519081016040528092919081815260200182805461205290614640565b801561209f5780601f106120745761010080835404028352916020019161209f565b820191906000526020600020905b81548152906001019060200180831161208257829003601f168201915b505050505061109a565b6120e8576040517f08c379a00000000000000000000000000000000000000000000000000000000081526004016120df9061425a565b60405180910390fd5b600360016000866fffffffffffffffffffffffffffffffff19166fffffffffffffffffffffffffffffffff1916815260200190815260200160002060040160006101000a81548160ff0219169083600581111561216e577f4e487b7100000000000000000000000000000000000000000000000000000000600052602160045260246000fd5b021790555060019250505092915050565b6121883361059c565b6121c7576040517f08c379a00000000000000000000000000000000000000000000000000000000081526004016121be906142ba565b60405180910390fd5b600060405180608001604052808573ffffffffffffffffffffffffffffffffffffffff16815260200184815260200183815260200160011515815250905080600260008673ffffffffffffffffffffffffffffffffffffffff1673ffffffffffffffffffffffffffffffffffffffff16815260200190815260200160002060008201518160000160006101000a81548173ffffffffffffffffffffffffffffffffffffffff021916908373ffffffffffffffffffffffffffffffffffffffff16021790555060208201518160010190805190602001906122a892919061364e565b5060408201518160020190805190602001906122c592919061364e565b5060608201518160030160006101000a81548160ff02191690831515021790555090505050505050565b60006122fa3361049a565b612339576040517f08c379a00000000000000000000000000000000000000000000000000000000081526004016123309061421a565b60405180910390fd5b82828173ffffffffffffffffffffffffffffffffffffffff1660016000836fffffffffffffffffffffffffffffffff19166fffffffffffffffffffffffffffffffff1916815260200190815260200160002060040160019054906101000a900473ffffffffffffffffffffffffffffffffffffffff1673ffffffffffffffffffffffffffffffffffffffff1614612405576040517f08c379a00000000000000000000000000000000000000000000000000000000081526004016123fc9061429a565b60405180910390fd5b3373ffffffffffffffffffffffffffffffffffffffff1660016000866fffffffffffffffffffffffffffffffff19166fffffffffffffffffffffffffffffffff1916815260200190815260200160002060050160000160009054906101000a900473ffffffffffffffffffffffffffffffffffffffff1673ffffffffffffffffffffffffffffffffffffffff16146124d2576040517f08c379a00000000000000000000000000000000000000000000000000000000081526004016124c9906142ba565b60405180910390fd5b6000600581111561250c577f4e487b7100000000000000000000000000000000000000000000000000000000600052602160045260246000fd5b60016000866fffffffffffffffffffffffffffffffff19166fffffffffffffffffffffffffffffffff1916815260200190815260200160002060040160009054906101000a900460ff16600581111561258e577f4e487b7100000000000000000000000000000000000000000000000000000000600052602160045260246000fd5b146125ce576040517f08c379a00000000000000000000000000000000000000000000000000000000081526004016125c59061433a565b60405180910390fd5b6001806000866fffffffffffffffffffffffffffffffff19166fffffffffffffffffffffffffffffffff1916815260200190815260200160002060040160006101000a81548160ff02191690836005811115612653577f4e487b7100000000000000000000000000000000000000000000000000000000600052602160045260246000fd5b021790555060019250505092915050565b60016020528060005260406000206000915090508060000160009054906101000a900460801b9080600101805461269a90614640565b80601f01602080910402602001604051908101604052809291908181526020018280546126c690614640565b80156127135780601f106126e857610100808354040283529160200191612713565b820191906000526020600020905b8154815290600101906020018083116126f657829003601f168201915b5050505050908060020154908060030154908060040160009054906101000a900460ff16908060040160019054906101000a900473ffffffffffffffffffffffffffffffffffffffff1690806005016040518060800160405290816000820160009054906101000a900473ffffffffffffffffffffffffffffffffffffffff1673ffffffffffffffffffffffffffffffffffffffff1673ffffffffffffffffffffffffffffffffffffffff1681526020016001820180546127d390614640565b80601f01602080910402602001604051908101604052809291908181526020018280546127ff90614640565b801561284c5780601f106128215761010080835404028352916020019161284c565b820191906000526020600020905b81548152906001019060200180831161282f57829003601f168201915b5050505050815260200160028201805461286590614640565b80601f016020809104026020016040519081016040528092919081815260200182805461289190614640565b80156128de5780601f106128b3576101008083540402835291602001916128de565b820191906000526020600020905b8154815290600101906020018083116128c157829003601f168201915b505050505081526020016003820160009054906101000a900460ff161515151581525050905087565b60006129123361059c565b612951576040517f08c379a0000000000000000000000000000000000000000000000000000000008152600401612948906142ba565b60405180910390fd5b612a25600560003373ffffffffffffffffffffffffffffffffffffffff1673ffffffffffffffffffffffffffffffffffffffff16815260200190815260200160002060010180546129a190614640565b80601f01602080910402602001604051908101604052809291908181526020018280546129cd90614640565b8015612a1a5780601f106129ef57610100808354040283529160200191612a1a565b820191906000526020600020905b8154815290600101906020018083116129fd57829003601f168201915b50505050508361109a565b15612a65576040517f08c379a0000000000000000000000000000000000000000000000000000000008152600401612a5c9061431a565b60405180910390fd5b6000612a7084612e16565b90506000805b8251811015612d3a576000838281518110612aba577f4e487b7100000000000000000000000000000000000000000000000000000000600052603260045260246000fd5b60200260200101516000015190506000848381518110612b03577f4e487b7100000000000000000000000000000000000000000000000000000000600052603260045260246000fd5b60200260200101516040015190506000858481518110612b4c577f4e487b7100000000000000000000000000000000000000000000000000000000600052603260045260246000fd5b6020026020010151606001519050612bac868581518110612b96577f4e487b7100000000000000000000000000000000000000000000000000000000600052603260045260246000fd5b602002602001015160c00151604001518961109a565b8015612c6c575060046005811115612bed577f4e487b7100000000000000000000000000000000000000000000000000000000600052602160045260246000fd5b868581518110612c26577f4e487b7100000000000000000000000000000000000000000000000000000000600052603260045260246000fd5b6020026020010151608001516005811115612c6a577f4e487b7100000000000000000000000000000000000000000000000000000000600052602160045260246000fd5b145b15612d2457600560016000856fffffffffffffffffffffffffffffffff19166fffffffffffffffffffffffffffffffff1916815260200190815260200160002060040160006101000a81548160ff02191690836005811115612cf7577f4e487b7100000000000000000000000000000000000000000000000000000000600052602160045260246000fd5b0217905550612d21612d12828461357e90919063ffffffff16565b8661359490919063ffffffff16565b94505b5050508080612d32906146a3565b915050612a76565b506000600385604051612d4d91906140ab565b908152602001604051809103902060009054906101000a900473ffffffffffffffffffffffffffffffffffffffff1690508073ffffffffffffffffffffffffffffffffffffffff16637ad226dc83886040518363ffffffff1660e01b8152600401612db9929190614375565b602060405180830381600087803b158015612dd357600080fd5b505af1158015612de7573d6000803e3d6000fd5b505050506040513d601f19601f82011682018060405250810190612e0b9190613b82565b935050505092915050565b60606000600460008473ffffffffffffffffffffffffffffffffffffffff1673ffffffffffffffffffffffffffffffffffffffff168152602001908152602001600020805480602002602001604051908101604052809291908181526020018280548015612ed957602002820191906000526020600020906000905b82829054906101000a900460801b6fffffffffffffffffffffffffffffffff191681526020019060100190602082600f01049283019260010382029150808411612e925790505b505050505090506000815167ffffffffffffffff811115612f23577f4e487b7100000000000000000000000000000000000000000000000000000000600052604160045260246000fd5b604051908082528060200260200182016040528015612f5c57816020015b612f496135aa565b815260200190600190039081612f415790505b50905060005b82518110156133af5760016000848381518110612fa8577f4e487b7100000000000000000000000000000000000000000000000000000000600052603260045260246000fd5b60200260200101516fffffffffffffffffffffffffffffffff19166fffffffffffffffffffffffffffffffff191681526020019081526020016000206040518060e00160405290816000820160009054906101000a900460801b6fffffffffffffffffffffffffffffffff19166fffffffffffffffffffffffffffffffff1916815260200160018201805461303c90614640565b80601f016020809104026020016040519081016040528092919081815260200182805461306890614640565b80156130b55780601f1061308a576101008083540402835291602001916130b5565b820191906000526020600020905b81548152906001019060200180831161309857829003601f168201915b5050505050815260200160028201548152602001600382015481526020016004820160009054906101000a900460ff16600581111561311d577f4e487b7100000000000000000000000000000000000000000000000000000000600052602160045260246000fd5b6005811115613155577f4e487b7100000000000000000000000000000000000000000000000000000000600052602160045260246000fd5b81526020016004820160019054906101000a900473ffffffffffffffffffffffffffffffffffffffff1673ffffffffffffffffffffffffffffffffffffffff1673ffffffffffffffffffffffffffffffffffffffff168152602001600582016040518060800160405290816000820160009054906101000a900473ffffffffffffffffffffffffffffffffffffffff1673ffffffffffffffffffffffffffffffffffffffff1673ffffffffffffffffffffffffffffffffffffffff16815260200160018201805461322590614640565b80601f016020809104026020016040519081016040528092919081815260200182805461325190614640565b801561329e5780601f106132735761010080835404028352916020019161329e565b820191906000526020600020905b81548152906001019060200180831161328157829003601f168201915b505050505081526020016002820180546132b790614640565b80601f01602080910402602001604051908101604052809291908181526020018280546132e390614640565b80156133305780601f1061330557610100808354040283529160200191613330565b820191906000526020600020905b81548152906001019060200180831161331357829003601f168201915b505050505081526020016003820160009054906101000a900460ff16151515158152505081525050828281518110613391577f4e487b7100000000000000000000000000000000000000000000000000000000600052603260045260246000fd5b602002602001018190525080806133a7906146a3565b915050612f62565b508092505050919050565b6133c26134b2565b73ffffffffffffffffffffffffffffffffffffffff166133e0611850565b73ffffffffffffffffffffffffffffffffffffffff1614613436576040517f08c379a000000000000000000000000000000000000000000000000000000000815260040161342d906142fa565b60405180910390fd5b600073ffffffffffffffffffffffffffffffffffffffff168173ffffffffffffffffffffffffffffffffffffffff1614156134a6576040517f08c379a000000000000000000000000000000000000000000000000000000000815260040161349d9061423a565b60405180910390fd5b6134af816134ba565b50565b600033905090565b60008060009054906101000a900473ffffffffffffffffffffffffffffffffffffffff169050816000806101000a81548173ffffffffffffffffffffffffffffffffffffffff021916908373ffffffffffffffffffffffffffffffffffffffff1602179055508173ffffffffffffffffffffffffffffffffffffffff168173ffffffffffffffffffffffffffffffffffffffff167f8be0079c531659141344cd1fd0a4f28419497f9722a3daafe3b4186f6b6457e060405160405180910390a35050565b6000818361358c91906144bb565b905092915050565b600081836135a29190614465565b905092915050565b6040518060e0016040528060006fffffffffffffffffffffffffffffffff191681526020016060815260200160008152602001600081526020016000600581111561361e577f4e487b7100000000000000000000000000000000000000000000000000000000600052602160045260246000fd5b8152602001600073ffffffffffffffffffffffffffffffffffffffff1681526020016136486136d4565b81525090565b82805461365a90614640565b90600052602060002090601f01602090048101928261367c57600085556136c3565b82601f1061369557805160ff19168380011785556136c3565b828001600101855582156136c3579182015b828111156136c25782518255916020019190600101906136a7565b5b5090506136d09190613714565b5090565b6040518060800160405280600073ffffffffffffffffffffffffffffffffffffffff16815260200160608152602001606081526020016000151581525090565b5b8082111561372d576000816000905550600101613715565b5090565b600061374461373f846143c3565b61439e565b90508281526020810184848401111561375c57600080fd5b6137678482856145fe565b509392505050565b60008135905061377e81614a3a565b92915050565b60008135905061379381614a51565b92915050565b6000813590506137a881614a68565b92915050565b60008083601f8401126137c057600080fd5b8235905067ffffffffffffffff8111156137d957600080fd5b6020830191508360018202830111156137f157600080fd5b9250929050565b600082601f83011261380957600080fd5b8135613819848260208601613731565b91505092915050565b60008135905061383181614a7f565b92915050565b60008151905061384681614a7f565b92915050565b60006020828403121561385e57600080fd5b600061386c8482850161376f565b91505092915050565b60008060008060006080868803121561388d57600080fd5b600061389b88828901613784565b955050602086013567ffffffffffffffff8111156138b857600080fd5b6138c4888289016137ae565b945094505060406138d788828901613822565b92505060606138e888828901613822565b9150509295509295909350565b6000806040838503121561390857600080fd5b600061391685828601613784565b925050602083013567ffffffffffffffff81111561393357600080fd5b61393f858286016137f8565b9150509250929050565b6000806040838503121561395c57600080fd5b600061396a8582860161376f565b925050602061397b85828601613799565b9150509250929050565b6000806040838503121561399857600080fd5b60006139a68582860161376f565b925050602083013567ffffffffffffffff8111156139c357600080fd5b6139cf858286016137f8565b9150509250929050565b6000806000606084860312156139ee57600080fd5b60006139fc8682870161376f565b935050602084013567ffffffffffffffff811115613a1957600080fd5b613a25868287016137f8565b925050604084013567ffffffffffffffff811115613a4257600080fd5b613a4e868287016137f8565b9150509250925092565b600060208284031215613a6a57600080fd5b6000613a7884828501613799565b91505092915050565b600060208284031215613a9357600080fd5b600082013567ffffffffffffffff811115613aad57600080fd5b613ab9848285016137f8565b91505092915050565b60008060408385031215613ad557600080fd5b600083013567ffffffffffffffff811115613aef57600080fd5b613afb858286016137f8565b9250506020613b0c8582860161376f565b9150509250929050565b60008060408385031215613b2957600080fd5b600083013567ffffffffffffffff811115613b4357600080fd5b613b4f858286016137f8565b925050602083013567ffffffffffffffff811115613b6c57600080fd5b613b78858286016137f8565b9150509250929050565b600060208284031215613b9457600080fd5b6000613ba284828501613837565b91505092915050565b6000613bb78383613eea565b905092915050565b613bc88161455b565b82525050565b613bd781614549565b82525050565b613be681614549565b82525050565b613bfd613bf882614549565b6146ec565b82525050565b6000613c0e82614404565b613c188185614427565b935083602082028501613c2a856143f4565b8060005b85811015613c665784840389528151613c478582613bab565b9450613c528361441a565b925060208a01995050600181019050613c2e565b50829750879550505050505092915050565b613c818161456d565b82525050565b613c908161456d565b82525050565b613c9f81614579565b82525050565b613cae81614579565b82525050565b613cc5613cc0826145a5565b6146fe565b82525050565b613cd4816145ec565b82525050565b613ce3816145ec565b82525050565b6000613cf48261440f565b613cfe8185614438565b9350613d0e81856020860161460d565b613d17816147d6565b840191505092915050565b6000613d2d8261440f565b613d378185614449565b9350613d4781856020860161460d565b613d50816147d6565b840191505092915050565b6000613d668261440f565b613d70818561445a565b9350613d8081856020860161460d565b80840191505092915050565b6000613d99601a83614449565b9150613da4826147f4565b602082019050919050565b6000613dbc602683614449565b9150613dc78261481d565b604082019050919050565b6000613ddf602683614449565b9150613dea8261486c565b604082019050919050565b6000613e02600e83614449565b9150613e0d826148bb565b602082019050919050565b6000613e25602283614449565b9150613e30826148e4565b604082019050919050565b6000613e48601183614449565b9150613e5382614933565b602082019050919050565b6000613e6b600d83614449565b9150613e768261495c565b602082019050919050565b6000613e8e602083614449565b9150613e9982614985565b602082019050919050565b6000613eb1602183614449565b9150613ebc826149ae565b604082019050919050565b6000613ed4601583614449565b9150613edf826149fd565b602082019050919050565b600060e083016000830151613f026000860182613c96565b5060208301518482036020860152613f1a8282613ce9565b9150506040830151613f2f6040860182614061565b506060830151613f426060860182614061565b506080830151613f556080860182613ccb565b5060a0830151613f6860a0860182613bce565b5060c083015184820360c0860152613f808282613f8d565b9150508091505092915050565b6000608083016000830151613fa56000860182613bce565b5060208301518482036020860152613fbd8282613ce9565b91505060408301518482036040860152613fd78282613ce9565b9150506060830151613fec6060860182613c78565b508091505092915050565b600060808301600083015161400f6000860182613bce565b50602083015184820360208601526140278282613ce9565b915050604083015184820360408601526140418282613ce9565b91505060608301516140566060860182613c78565b508091505092915050565b61406a816145e2565b82525050565b614079816145e2565b82525050565b600061408b8285613bec565b60148201915061409b8284613cb4565b6020820191508190509392505050565b60006140b78284613d5b565b915081905092915050565b60006020820190506140d76000830184613bdd565b92915050565b60006080820190506140f26000830187613bdd565b81810360208301526141048186613d22565b905081810360408301526141188185613d22565b90506141276060830184613c87565b95945050505050565b6000602082019050818103600083015261414a8184613c03565b905092915050565b60006020820190506141676000830184613c87565b92915050565b60006040820190506141826000830185613c87565b81810360208301526141948184613d22565b90509392505050565b600060e0820190506141b2600083018a613ca5565b81810360208301526141c48189613d22565b90506141d36040830188614070565b6141e06060830187614070565b6141ed6080830186613cda565b6141fa60a0830185613bdd565b81810360c083015261420c8184613ff7565b905098975050505050505050565b6000602082019050818103600083015261423381613d8c565b9050919050565b6000602082019050818103600083015261425381613daf565b9050919050565b6000602082019050818103600083015261427381613dd2565b9050919050565b6000602082019050818103600083015261429381613df5565b9050919050565b600060208201905081810360008301526142b381613e18565b9050919050565b600060208201905081810360008301526142d381613e3b565b9050919050565b600060208201905081810360008301526142f381613e5e565b9050919050565b6000602082019050818103600083015261431381613e81565b9050919050565b6000602082019050818103600083015261433381613ea4565b9050919050565b6000602082019050818103600083015261435381613ec7565b9050919050565b600060208201905061436f6000830184614070565b92915050565b600060408201905061438a6000830185614070565b6143976020830184613bbf565b9392505050565b60006143a86143b9565b90506143b48282614672565b919050565b6000604051905090565b600067ffffffffffffffff8211156143de576143dd6147a7565b5b6143e7826147d6565b9050602081019050919050565b6000819050602082019050919050565b600081519050919050565b600081519050919050565b6000602082019050919050565b600082825260208201905092915050565b600082825260208201905092915050565b600082825260208201905092915050565b600081905092915050565b6000614470826145e2565b915061447b836145e2565b9250827fffffffffffffffffffffffffffffffffffffffffffffffffffffffffffffffff038211156144b0576144af61471a565b5b828201905092915050565b60006144c6826145e2565b91506144d1836145e2565b9250817fffffffffffffffffffffffffffffffffffffffffffffffffffffffffffffffff048311821515161561450a5761450961471a565b5b828202905092915050565b6000614520826145e2565b915061452b836145e2565b92508282101561453e5761453d61471a565b5b828203905092915050565b6000614554826145c2565b9050919050565b6000614566826145c2565b9050919050565b60008115159050919050565b60007fffffffffffffffffffffffffffffffff0000000000000000000000000000000082169050919050565b6000819050919050565b60008190506145bd82614a26565b919050565b600073ffffffffffffffffffffffffffffffffffffffff82169050919050565b6000819050919050565b60006145f7826145af565b9050919050565b82818337600083830152505050565b60005b8381101561462b578082015181840152602081019050614610565b8381111561463a576000848401525b50505050565b6000600282049050600182168061465857607f821691505b6020821081141561466c5761466b614778565b5b50919050565b61467b826147d6565b810181811067ffffffffffffffff8211171561469a576146996147a7565b5b80604052505050565b60006146ae826145e2565b91507fffffffffffffffffffffffffffffffffffffffffffffffffffffffffffffffff8214156146e1576146e061471a565b5b600182019050919050565b60006146f782614708565b9050919050565b6000819050919050565b6000614713826147e7565b9050919050565b7f4e487b7100000000000000000000000000000000000000000000000000000000600052601160045260246000fd5b7f4e487b7100000000000000000000000000000000000000000000000000000000600052602160045260246000fd5b7f4e487b7100000000000000000000000000000000000000000000000000000000600052602260045260246000fd5b7f4e487b7100000000000000000000000000000000000000000000000000000000600052604160045260246000fd5b6000601f19601f8301169050919050565b60008160601b9050919050565b7f4f726465722043726561746f72206973206e6f742053686f702e000000000000600082015250565b7f4f776e61626c653a206e6577206f776e657220697320746865207a65726f206160008201527f6464726573730000000000000000000000000000000000000000000000000000602082015250565b7f446966666572656e7420636f756e74727920617320746865206f72646572206360008201527f7265617465640000000000000000000000000000000000000000000000000000602082015250565b7f496e76616c696420416d6f756e74000000000000000000000000000000000000600082015250565b7f496e76616c6964204275796572202f20496e76616c6964204f7264657227732060008201527f6964000000000000000000000000000000000000000000000000000000000000602082015250565b7f5065726d697373696f6e2044656e696564000000000000000000000000000000600082015250565b7f496e76616c696420507269636500000000000000000000000000000000000000600082015250565b7f4f776e61626c653a2063616c6c6572206973206e6f7420746865206f776e6572600082015250565b7f53616d6520636f756e74727920617320746865206f726465722063726561746560008201527f6400000000000000000000000000000000000000000000000000000000000000602082015250565b7f496e76616c6964204f7264657227732053746174650000000000000000000000600082015250565b60068110614a3757614a36614749565b5b50565b614a4381614549565b8114614a4e57600080fd5b50565b614a5a8161455b565b8114614a6557600080fd5b50565b614a7181614579565b8114614a7c57600080fd5b50565b614a88816145e2565b8114614a9357600080fd5b5056fea264697066735822122025b0fe9dac393a3e744d19446e98c8a47757ef295b01554be05970a05527a7d064736f6c63430008040033",
  "linkReferences": {},
  "deployedLinkReferences": {}
}